:100000000C94A9010C94C6010C94C6010C94C60171
:100010000C94C6010C94C6010C94C6010C94C60144
:100020000C94C6010C94C6010C94C6010C94C60134
:100030000C94C6010C94C6010C94C6010C94C60124
:100040000C94C8010C94C6010C94C6010C94C60112
:100050000C94C6010C94C6010C94C6010C94C60104
:100060000C94C6010C94C6010C94C6010C94C601F4
:100070000C94C6010C94C6010C94C601000000004B
:100080000000005F00000003000300143E143E1453
:10009000242A7F2A124333086661364955225000CC
:1000A00005030000001C2241000041221C0014082E
:1000B0003E081408083E08080050300000080808F0
:1000C0000808006060000020100804023E51494505
:1000D0003E0004027F0042615149462241494936AF
:1000E0001814127F1027454545393E4949493201C8
:1000F000017109073649494936264949493E0036C2
:100100003600000056360000081422410014141472
:100110001414004122140802015109063E415955A8
:100120005E7E0909097E7F494949363E41414122A7
:100130007F4141413E7F494949417F090909013ECB
:100140004141493A7F0808087F00417F4100304023
:1001500040403F7F081422417F404040407F020CD6
:10016000027F7F0204087F3E4141413E7F09090929
:10017000061E2121215E7F09090976264949493257
:1001800001017F01013F4040403F1F2040201F7F71
:100190002010207F41221C2241070870080761516E
:1001A000494543007F41000002040810200000413F
:1001B0007F0004020102044040404040000102046C
:1001C0000020545454787F444444383844444444D0
:1001D000384444447F385454541804047E050508B8
:1001E0005454543C7F0804047800447D400020406F
:1001F000443D007F1028440000417F40007C04788B
:1002000004787C0804047838444444387C1414147A
:1002100008081414147C007C080404485454542026
:1002200004043F44443C4040207C1C2040201C3CB3
:100230004030403C44281028440C5050503C44640A
:10024000544C44000836414100007F0000414136D3
:100250000800020102040200407A10F35A00A07262
:100260004E18090010A5D4E80000E87648170000F1
:10027000E40B54020000CA9A3B000000E1F50500BF
:100280000080969800000040420F000000A0860108
:10029000000000102700000000E8030000000064D8
:1002A00000000000000A0000000000010000000043
:1002B000002C76D888DC674F0823DFC1DFAE59E118
:1002C000B1B796E5E3E453C63AE651997696E8E687
:1002D000C28426EB898C9B62ED407C6FFCEFBC9C5A
:1002E0009F40F2BAA56FA5F490055A2AF75C936B6C
:1002F0006CF9676DC11BFCE0E40D47FEF520E6B527
:1003000000D0ED902E0300943577050080841E0800
:100310000000204E0A000000C80C333333330F981E
:100320006E12831141EF8D2114893BE65516CFFEE5
:10033000E6DB18D1844B381BF77C1D901DA4BBE471
:1003400024203284725E228100C9F124ECA1E53DB3
:10035000270011241FBECFEFD0E1DEBFCDBF12E0DA
:10036000A0E0B1E0EEEBF2E302C005900D92AC3DEF
:10037000B107D9F713E0ACEDB2E001C01D92A03196
:10038000B107E1F70E94D1050C945D190C940000AF
:100390001F920F920FB60F9211248F939F9310927A
:1003A0007C0080917A00806480937A0080917A004A
:1003B00086FDFCCF80917800909179009093DF02C8
:1003C0008093DE0281E080937C0080917A008064DB
:1003D00080937A0080917A0086FDFCCF809178002E
:1003E000909179009093E1028093E00281E090E0A7
:1003F0009093E3028093E2028091DD028F5F80930D
:10040000DD028091DD028D3739F48091DC028F5F4F
:100410008093DC021092DD029F918F910F900FBEAE
:100420000F901F90189581B1807F81B9EAE7F0E0C5
:10043000808186688083089584B5826084BD85B597
:10044000846085BD8AE487BDEEE6F0E0808182604D
:1004500080830895579AE0EBF0E080818368808381
:10046000E1EBF0E08081816080831092B300089519
:1004700081B18F7881B982B18F7882B98AB18F6169
:100480008AB919B8089520E030E040E251E40E94B2
:10049000730F20E030E04FE753E40E94790E20E034
:1004A00030E040E05FE30E944C0E0E94DD1060935C
:1004B000B300089590B121E030E002C0220F331F55
:1004C0008A95E2F7892F82230895382F662361F0F9
:1004D0002BB181E090E002C0880F991F3A95E2F7B6
:1004E000809582238BB908952BB181E090E002C002
:1004F000880F991F3A95E2F7282B2BB90895809120
:10050000DC0265E00E941E1490E0AA2797FDA095EA
:10051000BA2FBC01CD010E947F10089580937C000A
:1005200080917A00806480937A0080917A0086FDC1
:10053000FCCF2091780030917900C9010895AF92E5
:10054000BF92CF92DF92EF92FF920F931F93CF93C0
:10055000DF93EC015B01FA01690180812181328125
:1005600043816481A581E6800781182F1F5F91E098
:10057000181708F090E0B92FB20F81E0B21708F019
:1005800080E0782F730F81E0731708F080E0582F18
:10059000540F81E0541708F080E0382F360F81E0C7
:1005A000361708F080E0282F2A0F81E02A1708F07C
:1005B00080E0982F9E0D81E09E1508F080E0800F6E
:1005C0001083B18372835383348325839683878317
:1005D0006881798180E090E00E94311120E030EC68
:1005E0004FE754E40E94730F23E333E343ED50E4F9
:1005F0000E94790E23E333E343E550E40E941B0E8F
:100600007B018C01F5016081718180E090E00E94A6
:10061000311120E030EC4FE754E40E94730F23E3E4
:1006200033E343ED50E40E94790E23E333E343E5E3
:1006300050E40E941B0E9B01AC01C801B7010E944F
:10064000790E27E137EB41ED5AE30E94790E9B01C9
:10065000AC01F60160817181828193810E944C0E10
:10066000F6016083718382839383DF91CF911F9121
:100670000F91FF90EF90DF90CF90BF90AF900895D3
:10068000EF92FF920F931F938C01FB017A0120815F
:1006900031814281538164817581868197810E9475
:1006A000F30B27E137EB41ED5AE30E94790E9B01F2
:1006B000AC01F80160817181828193810E94730F86
:1006C000F70160837183828393831F910F91FF9061
:1006D000EF900895AF92BF92CF92DF92EF92FF9288
:1006E0000F931F93FC017B016A01B22EA02E608143
:1006F00071818281938143E021E087010E9461142E
:1007000000D000D000D0EDB7FEB73196ADB7BEB780
:100710001296DC92CE92119780E091E093838283CF
:10072000F582E4820E9482148DB79EB706960FB6BA
:10073000F8949EBF0FBE8DBF8B2D90E06A2D70E0A8
:10074000A6010E94E9091F910F91FF90EF90DF90A1
:10075000CF90BF90AF9008958F92AF92CF92EF92CB
:100760000F931F93DF93CF93CDB7DEB728970FB6C4
:10077000F894DEBF0FBECDBF69837A838B839C83E1
:100780002D833E834F835887102FCE01019668EE4C
:1007900072E04CEF52E029E002E00E946A03CE01D1
:1007A000059668EE72E04CEF52E02AE00E946A0380
:1007B000112339F080E090E061E070E044E051E026
:1007C00006C080E090E061E070E048E051E00E9407
:1007D000E909EE2039F081E090E061E070E044E06A
:1007E00051E006C081E090E061E070E048E051E057
:1007F0000E94E909CC2039F082E090E061E070E0ED
:1008000044E051E006C082E090E061E070E048E042
:1008100051E00E94E909AA2039F080E090E063E00D
:1008200070E044E051E006C080E090E063E070E0FA
:1008300048E051E00E94E909882039F081E090E029
:1008400063E070E044E051E006C081E090E063E0E6
:1008500070E048E051E00E94E9098B89882339F073
:1008600082E090E063E070E044E051E006C082E0A6
:1008700090E063E070E048E051E00E94E9098C8973
:10088000882351F48D89882389F483E090E062E025
:1008900070E04BE051E010C08C89813039F483E086
:1008A00090E062E070E041E151E006C083E090E05A
:1008B00062E070E049E151E00E94E90928960FB634
:1008C000F894DEBF0FBECDBFCF91DF911F910F9186
:1008D000EF90CF90AF908F900895CF92DF92EF92EC
:1008E000FF920F931F93DF93CF93CDB7DEB7A097FF
:1008F0000FB6F894DEBF0FBECDBF209192013091AC
:1009000093012150304080919401909195011A8279
:100910001982422F3C832B831E821D828F839887EE
:1009200029813A815C816D817E8100E010E00E9426
:100930008407809192019091930101971A861986FC
:10094000482F9C878B871E861D8683E190E0988BBD
:100950008F8729853A855C856D857E8598890FEF1F
:100960001FEF0E9484078DE090E062E070E00E943B
:10097000C30980E090E00E94D8098FEF9FEF0E94AA
:10098000D30984E291E00E94B009E0909201F090D6
:100990009301F7013597C0909401D0909501C6015D
:1009A0000597988F8F8B20E230E0622F3E8B2D8B46
:1009B0004E2FFC8BEB8BE5E0F0E02E2FFA8BE98BD2
:1009C0003A895C897E89988D0E94840789EF9FEF20
:1009D000E80EF91E4E2DFC8EEB8EC80ED91ED8A245
:1009E000CF8E82E290E0682F9E8F8D8F87E090E01F
:1009F000282F9A8F898F3A8D5C8D7E8D8C2D98A1B2
:100A000000E010E00E9484078DE090E067E170E074
:100A10000E94C3098FEF9FEF0E94D80980E090E009
:100A20000E94D3098BE291E00E94B00987E090E038
:100A300062E270E00E94DD0980E090E060E070E03A
:100A400042E351E00E94E90981E090E060E070E05B
:100A500046E351E00E94E90982E090E060E070E046
:100A60004AE351E00E94E90980E090E062E070E032
:100A70004EE351E00E94E90981E090E062E070E01D
:100A800042E451E00E94E90982E090E062E070E017
:100A900046E451E00E94E90983E090E060E070E004
:100AA0004AE451E00E94E90984E090E060E070E0EF
:100AB00044E551E00E94E90985E090E060E070E0E3
:100AC0004DE551E00E94E90986E090E060E070E0C9
:100AD00046E651E00E94E90987E090E060E070E0BE
:100AE0004FE651E00E94E90988E090E060E070E0A4
:100AF00047E751E00E94E90989E090E060E070E09A
:100B000040E851E00E94E9098AE090E060E070E08E
:100B100045E851E00E94E90984E090E064E070E07B
:100B20004AE851E00E94E90985E090E064E070E065
:100B30004CE851E00E94E9090EE811E086E090E0FF
:100B400064E070E0A8010E94E90987E090E064E0B9
:100B500070E0A8010E94E90988E090E064E070E09C
:100B6000A8010E94E90989E090E064E070E040E9B2
:100B700051E00E94E9098AE090E064E070E0A80199
:100B80000E94E909A0960FB6F894DEBF0FBECDBF54
:100B9000CF91DF911F910F91FF90EF90DF90CF9059
:100BA00008952F923F924F925F926F927F928F9211
:100BB0009F92AF92BF92CF92DF92EF92FF920F93EC
:100BC0001F93DF93CF93CDB7DEB764970FB6F8943A
:100BD000DEBF0FBECDBF0E94820A80E090E00E947F
:100BE00000070E946D041D861E861F86188A198ABA
:100BF0001A8A1B8A1C8A1A8219821C821B8280E034
:100C000090E0A0E0B0E08D839E83AF83B8878987B2
:100C10009A87AB87BC8781B1807F81B980917A0048
:100C2000866880937A000E941C020E942A020E9419
:100C3000380278946DE0462E512C4C0E5D1E55E026
:100C4000652E712C6C0E7D1E49E0242E312C2C0E4D
:100C50003D1E8091E2029091E302892B01F1F8940C
:100C60008091DE029091DF029A8389838091E00275
:100C70009091E1029C838B831092E3021092E20236
:100C80007894CE010196BE016D5F7F4FA201930162
:100C90000E949F02C301B201A1010E944003B0B0B3
:100CA000B2943FE0B32281E0B82280B0829486946F
:100CB00027E082228822A0B0A294A694A69493E072
:100CC000A922A82299246B2D70E080E090E00E9478
:100CD0007F102DEC3CEC4CE45FE30E94790E7B012D
:100CE0008C01682D70E080E090E00E947F1026E685
:100CF00036E646EE5FE30E94790E9B01AC01C80127
:100D0000B7010E944C0E7B018C016A2D70E080E0DF
:100D100090E00E947F1023E333E343EB5FE30E9404
:100D2000790E9B01AC01C801B7010E944C0E20E076
:100D300030E040E450E40E944F10181614F099245B
:100D4000939482E060E00E94650283E060E00E948C
:100D5000650284E060E00E94650280E0692D0E94E7
:100D6000650281E060E00E94650200D00F920DB73D
:100D70001EB70F5F1F4F69817A8180E090E00E946B
:100D8000311120E030EC4FE754E40E94730F23E36D
:100D900033E343ED50E40E94790E23E333E343E56C
:100DA00050E40E941B0E6B017C016B817C8180E012
:100DB00090E00E94311120E030EC4FE754E40E94B3
:100DC000730F23E333E343ED50E40E94790E23E3F2
:100DD00033E343E550E40E941B0E9B01AC01F80194
:100DE000108291821282C701B6010B2DE82CCA2C09
:100DF000AA2488240E94AC030F900F900F9029CF53
:100E00009C0190939701809396012C9886E388B972
:100E10002B982B9A2C9A2115310571F480EF90E0D4
:100E2000909393018093920180E491E090939501D7
:100E30008093940188E432C02130310571F480E45C
:100E400091E0909393018093920180EF90E09093D2
:100E500095018093940188EE21C02230310571F410
:100E600080EF90E0909393018093920180E491E071
:100E7000909395018093940188E810C02330310548
:100E800081F480E491E0909393018093920180EF4C
:100E900090E0909395018093940188E288B92B9813
:100EA0002B9A2C988AE288B92B982B9A2C9A18B8EE
:100EB0002B982B9A18B82B982B9A8091920190918D
:100EC0009301019798B901962B982B9A815088B974
:100ED0002B982B9A2C988BE288B92B982B9A2C9ACA
:100EE00018B82B982B9A18B82B982B9A80919401AC
:100EF00090919501019798B901962B982B9A815062
:100F000088B92B982B9A0895EF92FF920F931F9315
:100F1000DF93CF93CDB7DEB728970FB6F894DEBF37
:100F20000FBECDBFF22F2983E32F3A834B835C831F
:100F3000362F6D83272F7E838F8398877801AB812F
:100F4000BC81062F172F6F8178852C988AE288B98B
:100F50002B982B9A2C9AE8B92B982B9AF8B92B98A6
:100F60002B9AB8B92B982B9AA8B92B982B9A2C9816
:100F70008BE288B92B982B9A2C9A28B92B982B9A0C
:100F800038B92B982B9A78B92B982B9A68B92B984B
:100F90002B9A2C988CE288B92B982B9A2C9A2F2F6D
:100FA0003E2FC901AC010DC0F8B82B982B9AE8B8B8
:100FB0002B982B9A2F5F3F4F62177307A8F74F5F4D
:100FC0005F4FA417B50710F09801F6CF28960FB61B
:100FD000F894DEBF0FBECDBFCF91DF911F910F916F
:100FE000FF90EF900895EF92FF920F931F93DF937E
:100FF000CF93CDB7DEB728970FB6F894DEBF0FBEFC
:10100000CDBFF22F2983E32F3A834B835C83362FA6
:101010006D83272F7E838F839887D8010B811C8156
:10102000E62EF72E6F8178852C988AE288B92B9866
:101030002B9A2C9AE8B92B982B9AF8B92B982B9AC3
:1010400018B92B982B9A08B92B982B9A2C988BE2CD
:1010500088B92B982B9A2C9A28B92B982B9A38B9A7
:101060002B982B9A78B92B982B9A68B92B982B9A96
:101070002C988CE288B92B982B9A2C9A2F2F3E2FE4
:10108000C901AC0114C011968C91119788B92B98A5
:101090002B9A12968C91129788B914962B982B9AAA
:1010A0002F5F3F4F6217730770F74F5F5F4F041753
:1010B000150710F09701F6CF28960FB6F894DEBF0B
:1010C0000FBECDBFCF91DF911F910F91FF90EF9099
:1010D00008950F931F93DF93CF93CDB7DEB7289773
:1010E0000FB6F894DEBF0FBECDBF109299011092DB
:1010F000980110929B0110929A01209192013091D7
:101100009301215030408091940190919501019775
:101110001A821982422F3C832B831E821D8298875C
:101120008F8300919E0110919F0129813A815C81FA
:101130006D817E8198850E94840728960FB6F89469
:10114000DEBF0FBECDBFCF91DF911F910F910895EC
:101150002C982AE228B92B982B9A2C9A98B92B987C
:101160002B9A88B92B982B9A98B92B982B9A88B9D7
:101170002B982B9A2C988CE288B92B982B9A2C9A26
:10118000F0919E01E0919F01CB010DC0E8B92B9831
:101190002B9AF8B92B982B9AE8B92B982B9AF8B977
:1011A0002B982B9A01964817590780F708956F924C
:1011B0007F928F929F92AF92BF92CF92DF92EF92E7
:1011C000FF920F931F93CF93DF93282F40919801A5
:1011D0005091990169E0862E912C840E951E009104
:1011E0009A0110919B0180528F3508F0AAC037E018
:1011F000E32EF12CE00EF11E85E02802F00111240F
:10120000E452F0402C988BE288B92B982B9A2C9AB8
:1012100018B92B982B9A08B92B982B9A015F1F4F5E
:1012200018B90F5010402B982B9A8E2D885F88B9D3
:101230002B982B9AA0909C01B0909D01C0909E018C
:10124000D0909F01EA0160E070E09AE2692E8CE2A2
:10125000782E4BC02C9868B82B982B9A2C9AD8B91A
:101260002B982B9AC8B92B982B9AD8B92B982B9AD4
:10127000C8B92B982B9A2C9878B82B982B9A2C9A23
:1012800060FD02C0DF0102C0DF0111968491980168
:1012900051E024C0452F482311F49D2D01C09B2D02
:1012A00098B92B982B9A442311F49C2D01C09A2DA8
:1012B00098B92B982B9A442311F49D2D01C09B2D96
:1012C00098B92B982B9A442311F49C2D01C09A2D88
:1012D00098B92B982B9A2F5F3F4F550FE216F306C4
:1012E000C8F621966F5F7F4FFD018C169D0608F0B2
:1012F000B1CFCE01B801A7010E94A808CE01019686
:10130000B801A7010E94A8088091980190919901C5
:101310000C969093990180939801209192013091BD
:1013200093018217930768F0109299011092980127
:1013300080919A0190919B01409690939B0180939C
:101340009A01DF91CF911F910F91FF90EF90DF9065
:10135000CF90BF90AF909F908F907F906F900895A7
:101360001F93CF93DF93EC0110E003C00E94D708D6
:101370001F5FFE01E10FF11D80818823B9F7DF9126
:10138000CF911F910895813F910560F421E0613470
:10139000720740F4909399018093980170939B0198
:1013A00060939A01089590939F0180939E01089500
:1013B00090939D0180939C01089508969093E70275
:1013C0008093E602665F7F4F7093E5026093E402CC
:1013D00008950F931F93CF93DF93EC018A0162303E
:1013E000710509F442C06330710540F4611571055F
:1013F00071F06130710509F07DC02AC0633071055C
:1014000009F440C06430710509F074C048C04091CF
:10141000E6025091E7022091E4023091E502413F5B
:10142000510508F067C0F4E0880F991FFA95E1F7BD
:10143000820F931F21E08134920708F05BC0509324
:1014400099014093980190939B0180939A0152C017
:10145000609192017091930180E090E00E943111BF
:1014600020E030E040E85EE326C060919201709198
:10147000930180E090E00E94311120E030E040E0F4
:101480005FE319C0609192017091930180E090E058
:101490000E94311120E030E040E45FE30CC0609135
:1014A00092017091930180E090E00E94311126E654
:1014B00036E646E65FE30E94790E0E94C70B409134
:1014C000E4025091E502613F7105A0F49E01E4E061
:1014D000220F331FEA95E1F7240F351F41E0213435
:1014E000340740F4709399016093980130939B0105
:1014F00020939A01C8010E94B009DF91CF911F91FA
:101500000F91089585B7806885BF85B7806885BFCE
:101510008FE784B98FEF87B90E948F0A08952A98C0
:1015200088EA91E6FC013197F1F72A9A0197F1F7E1
:101530002C9A2B9A2D9A289829982E9A2C9888E2E2
:1015400088B92B982B9A2C9A2C9881E188B92B98E2
:101550002B9A2C9A88E99AE30197F1F72C988BEC57
:1015600088B92B982B9A2C9A81E088B92B982B9AC2
:101570002C9880EC88B92B982B9A2C9A86E288B903
:101580002B982B9A88E088B92B982B9A2C9881EC71
:1015900088B92B982B9A2C9A80E188B92B982B9A92
:1015A0002C9885EC88B92B982B9A2C9A85E388B9CE
:1015B0002B982B9A8EE388B92B982B9A2C9886E33C
:1015C00088B92B982B9A2C9A88E488B92B982B9A57
:1015D0002C9880EB88B92B982B9A2C9A8AE488B99E
:1015E0002B982B9A2C9881EB88B92B982B9A2C9AB4
:1015F00018B82B982B9A8BE188B92B982B9A2C989A
:1016000086EB88B92B982B9A2C9AEEECF1E081911D
:1016100088B92B982B9A41E0E23DF407C1F72C984A
:1016200087EC88B92B982B9A2C9A85EB88B92B9844
:101630002B9A2C9886EF88B92B982B9A2C9AEAEC47
:10164000F1E0819188B92B982B9A81E0ED3CF80765
:10165000C1F72C9882EF88B92B982B9A2C9A18B83E
:101660002B982B9A2C9886E288B92B982B9A2C9A37
:1016700081E088B92B982B9A2C988AE388B92B980B
:101680002B9A2C9A85E588B92B982B9A2C9880EE6A
:1016900088B92B982B9A2C9AEAEBF1E0819188B9C2
:1016A0002B982B9A41E0E93CF407C1F72C9881EE86
:1016B00088B92B982B9A2C9AEAEAF1E0819188B9A3
:1016C0002B982B9A81E0E93BF807C1F72C988AE226
:1016D00088B92B982B9A2C9AE5EAF1E0819188B988
:1016E0002B982B9A41E0E93AF407C1F72C988BE24A
:1016F00088B92B982B9A2C9AE0EAF1E0819188B96D
:101700002B982B9A81E0E43AF807C1F72C9884E3F0
:1017100088B92B982B9A2C9A2C9884EB88B92B9803
:101720002B9A2C9A18B82B982B9A2C9887EB88B95F
:101730002B982B9A2C9A87E088B92B982B9A2C9867
:101740008CE288B92B982B9A2C9A20E030E010C0BC
:1017500018B82B982B9A18B82B982B9A019641E021
:1017600080349407A9F72F5F3F4F203F310519F0D0
:1017700080E090E0EDCF2C9889E288B92B982B9AE5
:101780002C9A84ED90E30197F1F7299A0895EF924E
:10179000FF920F931F937B018C0120E030E040E02B
:1017A0005FE40E941F1088238CF0C801B70120E07D
:1017B00030E040E05FE40E941B0E0E94DD109B01C0
:1017C000AC01205030404040504806C0C801B7012D
:1017D0000E94DD109B01AC01B901CA011F910F915C
:1017E000FF90EF900895A2E0B0E0E9EFFBE00C94E9
:1017F0002A14122FB32EA42E952E862E372E282E85
:101800009A83C22ED32EE42EF52EA701960160E016
:1018100070E080E090E02117A1F43B1591F44A15A7
:1018200081F4591571F4681561F4731551F482153A
:1018300041F4AA819A1729F4C701B6010E94311117
:10184000AAC0212F3B2D4A2D592D682D732D822D95
:101850009A8100E20E94AA11C901DA018030E0E019
:101860009E07E1E0AE07E0E0BE0780F48F3F910500
:10187000A105B10531F028F028E030E040E050E06B
:1018800016C020E030E040E050E011C08030F0E0D1
:101890009F07F0E0AF07F1E0BF0728F028E130E054
:1018A00040E050E004C020E130E040E050E0022E93
:1018B00004C0B695A795979587950A94D2F7FC0131
:1018C000E552FE4F808129013A01480E511C611CEE
:1018D000711C4982212F3B2D4A2D592D682D732DC6
:1018E000822D9A81042D0E94AA11C901DA014C01AE
:1018F0005D0180E290E08419950904C0CC0CDD1CE8
:10190000EE1CFF1C8A95D2F7C114D104E104F10446
:1019100041F081E090E0A0E0B0E0882A992AAA2A6C
:10192000BB2A90E2491651046104710459F40F2E48
:10193000F0E0EF2EF0E0FF2EF0E80F2FFFE41F2F76
:10194000F02D21C0AFE14A1651046104710459F42D
:101950000F2EF0E0EF2EF0E0FF2EF0E00F2FFFE46F
:101960001F2FF02D10C061E070E080E090E0098052
:1019700004C0660F771F881F991F0A94D2F70E9430
:101980007F107B018C01C501B4010E943111A801B7
:1019900097010E94790E2296E2E10C944614A0E091
:1019A000B0E0E5EDFCE00C942A14DC012B01FA0117
:1019B0009C91923008F439C1EB018881823008F49F
:1019C00033C1943069F4843009F02FC111969C9191
:1019D00011978981981709F428C1A3EDB1E025C1B9
:1019E000843009F421C18230A9F4923009F01DC17C
:1019F0009A01AD0188E0EA010990AE01E90109927E
:101A00009E018150C1F7E201898111969C91892341
:101A1000818308C1923009F407C112962D903C9041
:101A20001397EB018A819B811496AD90BD90CD9068
:101A3000DC901797EC80FD800E811F819101281B9F
:101A4000390BB90137FF04C066277727621B730B78
:101A5000603271050CF061C0121613066CF5370187
:101A60004801062E04C096948794779467940A944C
:101A7000D2F721E030E040E050E004C0220F331FF5
:101A8000441F551F6A95D2F72150304040405040C6
:101A90002E213F21402351232115310541055105B8
:101AA00021F021E030E040E050E079018A01E628B1
:101AB000F728082919293CC0232BD1F1260E371EFF
:101AC00035014601062E04C0969487947794679456
:101AD0000A94D2F721E030E040E050E004C0220F49
:101AE000331F441F551F6A95D2F7215030404040A4
:101AF00050402A213B214C215D2121153105410512
:101B0000510521F021E030E040E050E059016A0148
:101B1000A628B728C828D9280BC0821593052CF011
:101B20001C01AA24BB24650103C0EE24FF24870105
:101B300011969C91D20111968C91981709F445C089
:101B4000992339F0A80197012A193B094C095D092D
:101B500006C0A60195012E193F09400B510B57FDF8
:101B600008C01182338222822483358346835783BF
:101B70001DC081E081833382228288279927DC017E
:101B8000821B930BA40BB50B84839583A683B78329
:101B90000DC0220F331F441F551F248335834683F6
:101BA0005783828193810197938382832481358136
:101BB00046815781DA01C9010197A109B1098F5FF7
:101BC0009F4FAF4FBF4328F30BC0918333822282D4
:101BD000EA0CFB1C0C1D1D1DE482F5820683178395
:101BE00083E08083248135814681578157FF1AC065
:101BF000C901AA2797FDA095BA2F81709070A07097
:101C0000B0705695479537952795822B932BA42B2B
:101C1000B52B84839583A683B783828193810196B4
:101C200093838283DF0101C0D201CD01CDB7DEB73E
:101C3000E2E10C944614A0E2B0E0E1E2FEE00C9494
:101C4000361469837A838B839C832D833E834F83F1
:101C50005887E9E0EE2EF12CEC0EFD1ECE01019628
:101C6000B7010E944D138E010F5E1F4FCE010596E6
:101C7000B8010E944D138A8991E089278A8BC70198
:101C8000B801AE01475E5F4F0E94CF0C0E947812F0
:101C9000A096E6E00C945214A0E2B0E0E2E5FEE08B
:101CA0000C94361469837A838B839C832D833E83C3
:101CB0004F835887F9E0EF2EF12CEC0EFD1ECE017C
:101CC0000196B7010E944D138E010F5E1F4FCE018A
:101CD0000596B8010E944D13C701B801AE01475ED9
:101CE0005F4F0E94CF0C0E947812A096E6E00C9401
:101CF0005214A0E2B0E0EFE7FEE00C942A146983EE
:101D00007A838B839C832D833E834F835887CE01B8
:101D10000196BE01675F7F4F0E944D13CE0105966D
:101D2000BE016F5E7F4F0E944D139985923088F0FF
:101D300089898230C8F0943019F4823051F404C09B
:101D4000843029F4923081F483ED91E0C6C0923062
:101D500049F420E09A858A89981321E02A87CE01E8
:101D60000996BBC0823049F420E09A858A8998138D
:101D700021E02A8BCE014196B0C02D843E844F8451
:101D800058886D887E888F88988CEE24FF24870180
:101D9000AA24BB24650140E050E060E070E0E0E090
:101DA000F0E0C10181709070892BE9F0E60CF71C1E
:101DB000081D191D9A01AB012A0D3B1D4C1D5D1D0F
:101DC00080E090E0A0E0B0E0E614F7040805190513
:101DD00020F481E090E0A0E0B0E0BA01A901480F52
:101DE000591F6A1F7B1FAA0CBB1CCC1CDD1C97FE55
:101DF00008C081E090E0A0E0B0E0A82AB92ACA2A91
:101E0000DB2A3196E032F10549F0660C771C881C1C
:101E1000991C5694479437942794C3CFFA85EA893E
:101E20002B893C898B859C85280F391F2E5F3F4F5E
:101E300017C0CA0181709070892B61F016950795C3
:101E4000F794E79480E090E0A0E0B0E8E82AF92A6F
:101E50000A2B1B2B76956795579547952F5F3F4F1C
:101E600077FDE7CF0CC0440F551F661F771F17FD86
:101E70004160EE0CFF1C001F111F2150304040300C
:101E800090E0590790E0690790E4790760F32B8FA1
:101E90003C8FDB01CA018F779070A070B0708034E6
:101EA0009105A105B10561F447FD0AC0E114F104F3
:101EB0000105110529F0405C5F4F6F4F7F4F40785F
:101EC0001A8EFE1711F081E08A8F4D8F5E8F6F8F13
:101ED00078A383E0898FCE0149960E947812A0965C
:101EE000E2E10C944614A8E1B0E0E9E7FFE00C94CD
:101EF000321469837A838B839C832D833E834F8343
:101F00005887B9E0EB2EF12CEC0EFD1ECE010196A8
:101F1000B7010E944D138E010F5E1F4FCE01059633
:101F2000B8010E944D132985223008F47EC03989FA
:101F3000323010F4B8017CC08A859A8989278A8753
:101F4000243011F0223031F4231709F06EC063ED14
:101F500071E06EC0343039F41D861E861F86188AE3
:101F60001C861B8604C0323021F484E08987B701C7
:101F70005FC02B853C858B899C89281B390B3C874E
:101F80002B87ED84FE840F851889AD88BE88CF88A5
:101F9000D88CEA14FB040C051D0540F4EE0CFF1C64
:101FA000001F111F215030403C872B8720E030E07C
:101FB00040E050E080E090E0A0E0B0E460E070E05D
:101FC000EA14FB040C051D0540F0282B392B4A2B85
:101FD0005B2BEA18FB080C091D09B695A795979588
:101FE0008795EE0CFF1C001F111F6F5F7F4F6F3135
:101FF000710531F7DA01C9018F779070A070B07068
:1020000080349105A105B10561F427FD0AC0E114F2
:10201000F1040105110529F0205C3F4F4F4F5F4F40
:1020200020782D873E874F87588BBE01675F7F4F93
:10203000CB010E9478126896EAE00C944E14A8E155
:10204000B0E0E5E2F0E10C94361469837A838B8387
:102050009C832D833E834F83588789E0E82EF12CA3
:10206000EC0EFD1ECE010196B7010E944D138E01AC
:102070000F5E1F4FCE010596B8010E944D13898552
:10208000823040F08989823028F0C701B8010E946F
:10209000C51301C08FEF6896E6E00C945214A8E1D6
:1020A000B0E0E5E5F0E10C94361469837A838B8324
:1020B0009C832D833E834F83588789E0E82EF12C43
:1020C000EC0EFD1ECE010196B7010E944D138E014C
:1020D0000F5E1F4FCE010596B8010E944D138985F2
:1020E000823040F08989823028F0C701B8010E940F
:1020F000C51301C081E06896E6E00C945214A8E094
:10210000B0E0E5E8F0E10C9433149B01AC0183E00E
:102110008983DA01C9018827B7FD83959927AA2702
:10212000BB27B82E211531054105510519F482E070
:1021300089833AC08823A9F0203080E0380780E006
:10214000480780E8580729F460E070E080E09FECE1
:1021500030C0EE24FF248701E21AF30A040B150BAA
:1021600002C079018A018EE1C82ED12CDC82CB829B
:10217000ED82FE820F831887C801B7010E942912E1
:1021800001971816190684F4082E04C0EE0CFF1CE3
:10219000001F111F0A94D2F7ED82FE820F83188769
:1021A000C81AD90ADC82CB82BA82CE0101960E947B
:1021B00078122896E9E00C944F14ACE0B0E0E3EE1E
:1021C000F0E10C943A1469837A838B839C83CE016B
:1021D0000196BE016B5F7F4F0E944D138D8182304F
:1021E00061F1823050F1843021F48E81882351F1E5
:1021F0002EC02F81388537FD20C06E812F313105EB
:102200001CF06623F9F023C08EE190E0821B930B53
:1022100029853A854B855C8504C056954795379549
:1022200027958A95D2F76623B1F050954095309561
:1022300021953F4F4F4F5F4F0EC020E030E040E010
:1022400050E009C02FEF3FEF4FEF5FE704C020E001
:1022500030E040E050E8B901CA012C96E2E00C946D
:102260005614A8E0B0E0E7E3F1E10C9432147B01EE
:102270008C01611571058105910519F482E089834E
:1022800060C083E089838EE1C82ED12CDC82CB82B2
:10229000ED82FE820F831887C801B7010E942912C0
:1022A000FC013197F7FF3BC0222733272E1B3F0B42
:1022B00057016801022E04C0D694C794B794A7941E
:1022C0000A94D2F740E050E060E070E081E090E0F6
:1022D000A0E0B0E004C0880F991FAA1FBB1F2A9579
:1022E000D2F70197A109B1098E219F21A023B12323
:1022F0000097A105B10521F041E050E060E070E0F9
:102300004A295B296C297D294D835E836F837887F9
:102310008EE190E08E1B9F0B9C838B8312C03097C5
:1023200081F00E2E04C0EE0CFF1C001F111F0A943A
:10233000D2F7ED82FE820F831887CE1ADF0ADC8285
:10234000CB821A82CE0101960E9478122896EAE08A
:102350000C944E14EF92FF920F93DF93CF93CDB76F
:10236000DEB760970FB6F894DEBF0FBECDBFA82FC3
:10237000002309F461C07E010894E11CF11C88E08F
:10238000F70111928A95E9F729833A834B835C839D
:102390006D837E83AF83988780E2801BE82FFF27C1
:1023A000E7FDF0954D815E816F817885181684F088
:1023B0001D861E861F86188A882799278E1B9F0BCD
:1023C00004C076956795579547958A95D2F728C0AA
:1023D000202F332727FD3095DB01CA01022E04C0D0
:1023E000B695A795979587950A94D2F78D879E877E
:1023F000AF87B88B04C0440F551F661F771FEA953F
:10240000D2F789819A81AB81BC8104C0B695A7952A
:10241000979587952A95D2F7482B592B6A2B7B2BBA
:1024200049875A876B877C8729853A854B855C85E8
:102430006D857E85AF8598898A2F60960FB6F89452
:10244000DEBF0FBECDBFCF91DF910F91FF90EF9018
:102450000895EF92FF920F931F937B018C0180E010
:10246000E81680E0F80681E0080780E0180788F4A5
:102470008FEFE816F1040105110531F028F088E02E
:1024800090E0A0E0B0E017C080E090E0A0E0B0E015
:1024900012C080E0E81680E0F80680E0080781E0DE
:1024A000180728F088E190E0A0E0B0E004C080E1E7
:1024B00090E0A0E0B0E020E230E040E050E0281BF7
:1024C000390B4A0B5B0B04C016950795F794E794FC
:1024D0008A95D2F7F701E552FE4F8081281B31091A
:1024E00041095109C9011F910F91FF90EF90089583
:1024F000DF92EF92FF920F931F93FC01E480F5802F
:1025000006811781D1808081823048F480E090E09C
:10251000A0E1B0E0E82AF92A0A2B1B2BA5C08430E1
:1025200009F49FC0823021F4EE24FF24870105C006
:10253000E114F1040105110519F4E0E0F0E096C0A2
:10254000628173819FEF623879070CF05BC022E8EB
:102550003FEF261B370B2A3131052CF020E030E00D
:1025600040E050E02AC0B801A701022E04C07695D1
:102570006795579547950A94D2F781E090E0A0E0DF
:10258000B0E004C0880F991FAA1FBB1F2A95D2F77D
:102590000197A109B1098E219F21A023B1230097A2
:1025A000A105B10521F081E090E0A0E0B0E09A0142
:1025B000AB01282B392B4A2B5B2BDA01C9018F7712
:1025C0009070A070B07080349105A105B10539F408
:1025D00027FF09C0205C3F4F4F4F5F4F04C0215C75
:1025E0003F4F4F4F5F4FE0E0F0E02030A0E03A0770
:1025F000A0E04A07A0E45A0710F0E1E0F0E079011A
:102600008A0127C06038710564F5FB01E158FF4F6E
:10261000D801C7018F779070A070B0708034910599
:10262000A105B10539F4E7FE0DC080E490E0A0E01B
:10263000B0E004C08FE390E0A0E0B0E0E80EF91E47
:102640000A1F1B1F17FF05C016950795F794E794FF
:10265000319687E016950795F794E7948A95D1F718
:1026600005C0EE24FF248701EFEFF0E06E2F6795A1
:1026700066276795902F9F77D794DD24D7948E2F68
:102680008695492F462B582F5D29B701CA011F9106
:102690000F91FF90EF90DF900895FC01DB014081E6
:1026A00051812281622F6F7770E0221F2227221F23
:1026B0009381892F880F822B282F30E0991F99272B
:1026C000991F11969C93119721153105A9F5411574
:1026D00051056105710511F482E037C082E89FEF72
:1026E00013969C938E9312979A01AB0167E0220F89
:1026F000331F441F551F6A95D1F783E08C930DC09B
:10270000220F331F441F551F12968D919C911397D2
:10271000019713969C938E931297203080E0380790
:1027200080E0480780E4580758F314962D933D93B2
:102730004D935C93179708952F3F310579F4411518
:1027400051056105710519F484E08C93089564FFC7
:1027500003C081E08C9312C01C9210C02F573040F0
:1027600013963C932E93129783E08C9387E0440F4B
:10277000551F661F771F8A95D1F7706414964D9385
:102780005D936D937C93179708951F93DC01FB0174
:102790009C91923008F447C08081823008F443C095
:1027A000943051F411961C91843099F58181682FF1
:1027B00070E0611B71093FC0843021F0923031F428
:1027C0008230B9F18181882389F12DC011961C9145
:1027D00011978230F1F081811817D9F412962D915A
:1027E0003C911397828193818217930794F0281765
:1027F0003907BCF014968D919D910D90BC91A02D40
:102800002481358146815781281739074A075B079C
:1028100018F4112341F00AC082179307A407B507E3
:1028200040F4112319F061E070E005C06FEF7FEF15
:1028300002C060E070E0CB011F910895991B79E020
:1028400004C0991F961708F0961B881F7A95C9F740
:10285000809508952F923F924F925F926F927F9250
:102860008F929F92AF92BF92CF92DF92EF92FF92A0
:102870000F931F93CF93DF93CDB7DEB7CA1BDB0B4C
:102880000FB6F894DEBF0FBECDBF09942A883988F1
:1028900048885F846E847D848C849B84AA84B984F8
:1028A000C884DF80EE80FD800C811B81AA81B98104
:1028B000CE0FD11D0FB6F894DEBF0FBECDBFED0118
:1028C0000895EF92FF920F931F93F22FF02E47FD82
:1028D00002C0E4E001C0E4E1242F332727FD309556
:1028E00037FF03C0309521953F4F4F2D512F0F2FAC
:1028F000EE2E0E9483168F2D912F1F910F91FF9026
:10290000EF900895AEE0B0E0E8E8F4E10C943814FC
:102910000D891E8986E08C831A8309838FEF9FE7D8
:102920009E838D839E01275E3F4FCE0101966F8966
:10293000788DA9010E94A6142F813885020F131FDC
:10294000F80110822E96E4E00C945414ABE0B0E051
:10295000ECEAF4E10C942A143C012B015A01FC012D
:1029600017821682838181FD03C06FEF7FEFC6C19E
:102970009AE0892E1E010894211C311CF301238149
:10298000F20123FD859123FF81912F01882309F412
:10299000B2C1853239F423FD859123FF81912F0146
:1029A000853229F490E0B3010E94D318E7CF982F25
:1029B000FF24EE249924FFE1FF15D0F09B3269F04B
:1029C0009C3228F4903259F0933291F40EC09D322B
:1029D00049F0903369F441E024C052E0F52A84E0E4
:1029E000F82A28C098E0F92A25C0E0E1FE2A22C092
:1029F000F7FC29C0892F80538A3070F4F6FE05C099
:102A0000989C902C1124980E15C0E89CE02C112461
:102A1000E80EF0E2FF2A0EC09E3229F4F6FC6BC1EC
:102A200040E4F42A07C09C3619F450E8F52A02C0A5
:102A3000983649F4F20123FD959123FF91912F01DE
:102A4000992309F0B8CF892F8554833018F080522C
:102A5000833038F444E050E0A40EB51E5FE35983A0
:102A60000FC0933631F0933779F0933509F056C0A3
:102A700020C0F5018081898342E050E0A40EB51E9C
:102A8000610101E010E012C0F501C080D180F6FCC8
:102A900003C06FEF7FEF02C0692D70E042E050E0AD
:102AA000A40EB51EC6010E94C8188C015FE7F5226E
:102AB00014C0F501C080D180F6FC03C06FEF7FEF3A
:102AC00002C0692D70E042E050E0A40EB51EC601C0
:102AD0000E94BD188C0150E8F52AF3FE07C01AC009
:102AE00080E290E0B3010E94D318EA948E2D90E02A
:102AF00008171907A8F30EC0F601F7FC8591F7FE39
:102B000081916F0190E0B3010E94D318E110EA9423
:102B1000015010400115110579F7EAC0943611F003
:102B2000993669F5F7FE08C0F501208131814281AF
:102B3000538184E090E00AC0F501808191819C017D
:102B4000442737FD4095542F82E090E0A80EB91E2F
:102B50009FE6F92257FF09C0509540953095219581
:102B60003F4F4F4F5F4FE0E8FE2ACA01B901A10174
:102B70002AE030E00E94FF18D82ED21840C09537C6
:102B800029F41F2D1F7E2AE030E01DC01F2D197F64
:102B90009F3661F0903720F4983509F0ACC00FC033
:102BA000903739F0983709F0A6C004C028E030E02B
:102BB0000AC0106114FD146020E130E004C014FD6F
:102BC000166020E132E017FF08C0F50160817181D5
:102BD0008281938144E050E008C0F50180819181B9
:102BE000BC0180E090E042E050E0A40EB51EA101DF
:102BF0000E94FF18D82ED2188FE7F82EF122F6FE89
:102C00000BC05EEFF522D91438F4F4FE07C0F2FCD5
:102C100005C08FEEF82202C01D2D01C0192DF4FE53
:102C20000DC0FE01ED0DF11D8081803319F499EE88
:102C3000F92208C01F5FF2FE05C003C08F2D867801
:102C400009F01F5F0F2DF3FC14C0F0FE0FC01E151E
:102C500010F09D2C0BC09D2C9E0C911A1E2D06C0B1
:102C600080E290E0B3010E94D3181F5F1E15C0F3ED
:102C700004C01E1510F4E11A01C0EE2404FF0FC0B9
:102C800080E390E0B3010E94D31802FF1DC001FD54
:102C900003C088E790E00EC088E590E00BC0802F6D
:102CA000867891F001FF02C08BE201C080E2F7FC60
:102CB0008DE290E0B3010E94D31806C080E390E05B
:102CC000B3010E94D3189A94D914C0F3DA94F10195
:102CD000ED0DF11D808190E0B3010E94D318DD203D
:102CE000A9F706C080E290E0B3010E94D318EA94ED
:102CF000EE20C1F743CEF30166817781CB012B969D
:102D0000E2E10C944614A9E0B0E0E9E8F6E10C94A5
:102D10002E146A01122FA02EBE2C2BE3201718F4BC
:102D20002CE3922E02C0902E9394AE014F5F5F4F22
:102D300027E0092D0E94E517BC018981E82EFF24B8
:102D4000C70189709070019711F4ADE209C0B1FE1E
:102D500002C0ABE205C0B0FC02C0A0E001C0A0E22E
:102D6000E3FE3BC0AA2311F423E001C024E02117B5
:102D700010F020E002C0121B212FEB2CB4FE02C089
:102D8000322F0AC0F601322F80E202C08193315007
:102D90003323E1F7C20ED11CAA2319F0F601A19347
:102DA0006F01F6013196E2FE05C09EE4D6019C93C8
:102DB00081E404C09EE6D6019C9381E611968C9333
:102DC00091833296DF01832F90E202C09D93815060
:102DD0008823E1F7E30FF11D40C0E2FE42C0AA23C1
:102DE00011F423E001C024E0211710F020E002C01C
:102DF000121B212FEB2CB4FE02C0922F0AC0F60149
:102E0000922F80E202C0819391509923E1F7C20E84
:102E1000D11CAA2319F0F601A1936F01F601319696
:102E2000E2FE08C089E4D6018C938EE411968C935F
:102E300086E407C089E6D6018C938EE611968C93C2
:102E400086E681833296DF01892F20E202C02D932E
:102E500081508823E1F7E90FF11D10822EEF3FEF3B
:102E6000AFC0161617061CF041E050E003C0AB01DE
:102E70004F5F5F4FAA2019F480E090E003C08A2DD5
:102E800090E0019620E030E0AA2311F021E030E04C
:102E9000240F351F280F391F812F90E0281739077D
:102EA00014F020E002C0121B212F4B2D50E0CA016C
:102EB00080719070B4FC0DC0B3FC0BC0F601322FD2
:102EC00040E202C0419331503323E1F7C20ED11CDE
:102ED00001C0322FAA2319F0F601A1936F01892BAB
:102EE00011F0132F0AC0F601132F80E302C0819363
:102EF00011501123E1F7C30ED11C092D060FBA8022
:102F000090E1892E912C8E209F20E4FE04C0F1E3F5
:102F1000BF1609F40150101614F001E003C0093087
:102F200008F008E09B0177FF02C020E030E0CB0111
:102F30000196821B930BFE013196E80FF91F8EE27A
:102F4000F82E3B01601A71088A2D90E0442755271E
:102F5000481B590B8FEF2F3F380719F4D601FD920C
:102F60006D01621773072CF06216730614F48081EA
:102F700001C080E32150304031962417350724F0FA
:102F8000D6018D936D01E6CF2617370749F4B5E3D7
:102F9000BB1528F0BB1621F48114910409F481E3D8
:102FA000F6018193D601812F90E202C09C9381505B
:102FB00011968823D9F7E10FF11D108220E030E04F
:102FC000C9012996EEE00C944A14283008F027E055
:102FD0003327DA01990F311D87FD91600096610555
:102FE000710539F432602E5F3D9330E32A95E1F7A5
:102FF00008959F3F30F080387105610509F03C5F0E
:103000003C5F3D93913008F08068911DDF93CF9332
:103010001F930F93FF92EF92192F987F9695E92FA8
:1030200096959695E90FFF27EF54FD4F9927332783
:10303000EE24FF24A701E70105900894079428F4E3
:10304000360FE71EF81E491F511D660F771F881F98
:10305000991F0694A1F70590079428F4E70EF81E2F
:10306000491F561FC11D770F881F991F661F0694A1
:10307000A1F70590079428F4F80E491F561FC71FA3
:10308000D11D880F991F661F771F0694A1F7059021
:10309000079420F4490F561FC71FD81F990F661FAA
:1030A000771F881F0694A9F784911095177041F037
:1030B000D695C79557954795F794E7941A95C1F714
:1030C000E7E5F2E068941590159135916591959139
:1030D00005907FE27395E118F10A430B560BC90B7B
:1030E000D009C0F7E10CF11E431F561FC91FD01DA8
:1030F0007EF4703311F48A95E6CFE894015030F0F5
:10310000080F0AF40027021708F4202F2395022F36
:103110007A3328F079E37D932A95E9F710C07D93FF
:103120002A9589F60694979567953795179517947C
:10313000E118F10A430B560BC90BD00998F02395FF
:103140007E9173957A3308F070E37C932013B8F77F
:103150007E9170617D9330F0839571E37D9370E390
:103160002A95E1F71124EF90FF900F911F91CF91D5
:10317000DF91992787FD90950895FC010590615096
:1031800070400110D8F7809590958E0F9F1F08957D
:10319000FC016150704001900110D8F78095909526
:1031A0008E0F9F1F08950F931F93CF93DF938C0172
:1031B000EB018B8181FF1BC082FF0DC02E813F81FF
:1031C0008C819D812817390764F4E881F981019386
:1031D000F983E88306C0E885F985802F0995892B56
:1031E00031F48E819F8101969F838E8302C00FEF01
:1031F0001FEFC801DF91CF911F910F910895FA0140
:10320000AA27283051F1203181F1E8946F936E7F25
:103210006E5F7F4F8F4F9F4FAF4FB1E03ED0B4E016
:103220003CD0670F781F891F9A1FA11D680F791F57
:103230008A1F911DA11D6A0F711D811D911DA11D68
:1032400020D009F468943F912AE0269F1124301978
:10325000305D3193DEF6CF010895462F4770405D13
:103260004193B3E00FD0C9F7F6CF462F4F70405DC2
:103270004A3318F0495D31FD4052419302D0A9F71D
:10328000EACFB4E0A6959795879577956795BA9517
:10329000C9F700976105710508959B01AC010A2EDD
:1032A00006945795479537952795BA95C9F7620FB4
:0E32B000731F841F951FA01D0895F894FFCF73
:1032BE0025377300596573004E6F002049646C65A5
:1032CE00002043686172676500204469736368611A
:1032DE00726765005465616D2048005374617475A2
:1032EE00730043313A0043323A0043333A005331CC
:1032FE003A0053323A0053333A00425F53746174CA
:10330E0075733A00425F4C6576656C3A00255F4DE9
:10331E0061696E733A00495F4D61696E733A004997
:10332E005F57696E643A00495F536F6C61723A0081
:10333E0042425F560042425F43004A002500410070
:10334E005600F0004001000000000000FFFF0000EA
:10335E000000013F00000000EF00002527051009C6
:10336E003A784D05180D383A1F001F1A180A0F0625
:10337E004587320A070207050000010000000A8295
:10338E002700000000000000000000000102020300
:10339E0003030304040404040404040505050505DD
:1033AE0005050505050505050505050606060606BA
:1033BE00060606060606060606060606060606069F
:1033CE00060606060606060606060607070707078A
:1033DE00070707070707070707070707070707076F
:1033EE00070707070707070707070707070707075F
:1033FE00070707070707070707070707070707074F
:10340E000707070707070707070707080808080839
:10341E00080808080808080808080808080808081E
:10342E00080808080808080808080808080808080E
:10343E0008080808080808080808080808080808FE
:10344E0008080808080808080808080808080808EE
:10345E0008080808080808080808080808080808DE
:10346E0008080808080808080808080808080808CE
:10347E0008080808080808080808080808080808BE
:0C348E00080808080808080808080800DA
:00000001FF
