:100000000C94A9010C94C6010C94C6010C94C60171
:100010000C94C6010C94C6010C94C6010C94C60144
:100020000C94C6010C94C6010C94C6010C94C60134
:100030000C94C6010C94C8010C94C6010C94C60122
:100040000C94C6010C94C6010C94C6010C94C60114
:100050000C94C6010C94C6010C94C6010C94C60104
:100060000C94C6010C94C6010C94C6010C94C601F4
:100070000C94C6010C94C6010C94C601000000004B
:100080000000005F00000003000300143E143E1453
:10009000242A7F2A124333086661364955225000CC
:1000A00005030000001C2241000041221C0014082E
:1000B0003E081408083E08080050300000080808F0
:1000C0000808006060000020100804023E51494505
:1000D0003E0004027F0042615149462241494936AF
:1000E0001814127F1027454545393E4949493201C8
:1000F000017109073649494936264949493E0036C2
:100100003600000056360000081422410014141472
:100110001414004122140802015109063E415955A8
:100120005E7E0909097E7F494949363E41414122A7
:100130007F4141413E7F494949417F090909013ECB
:100140004141493A7F0808087F00417F4100304023
:1001500040403F7F081422417F404040407F020CD6
:10016000027F7F0204087F3E4141413E7F09090929
:10017000061E2121215E7F09090976264949493257
:1001800001017F01013F4040403F1F2040201F7F71
:100190002010207F41221C2241070870080761516E
:1001A000494543007F41000002040810200000413F
:1001B0007F0004020102044040404040000102046C
:1001C0000020545454787F444444383844444444D0
:1001D000384444447F385454541804047E050508B8
:1001E0005454543C7F0804047800447D400020406F
:1001F000443D007F1028440000417F40007C04788B
:1002000004787C0804047838444444387C1414147A
:1002100008081414147C007C080404485454542026
:1002200004043F44443C4040207C1C2040201C3CB3
:100230004030403C44281028440C5050503C44640A
:10024000544C44000836414100007F0000414136D3
:100250000800020102040200407A10F35A00A07262
:100260004E18090010A5D4E80000E87648170000F1
:10027000E40B54020000CA9A3B000000E1F50500BF
:100280000080969800000040420F000000A0860108
:10029000000000102700000000E8030000000064D8
:1002A00000000000000A0000000000010000000043
:1002B000002C76D888DC674F0823DFC1DFAE59E118
:1002C000B1B796E5E3E453C63AE651997696E8E687
:1002D000C28426EB898C9B62ED407C6FFCEFBC9C5A
:1002E0009F40F2BAA56FA5F490055A2AF75C936B6C
:1002F0006CF9676DC11BFCE0E40D47FEF520E6B527
:1003000000D0ED902E0300943577050080841E0800
:100310000000204E0A000000C80C333333330F981E
:100320006E12831141EF8D2114893BE65516CFFEE5
:10033000E6DB18D1844B381BF77C1D901DA4BBE471
:1003400024203284725E228100C9F124ECA1E53DB3
:10035000270011241FBECFEFD0E1DEBFCDBF11E0DB
:10036000A0E0B1E0E4E6F4E202C005900D92A23D07
:10037000B107D9F722E0A2EDB1E001C01D92A23091
:10038000B207E1F70E941E0A0C9430120C94000090
:100390001F920F920FB60F9211248F939F93AF93DA
:1003A000BF938091D2019091D301A091D401B091DB
:1003B000D5010196A11DB11D8093D2019093D30167
:1003C000A093D401B093D501BF91AF919F918F912C
:1003D0000F900FBE0F901F901895CF92DF92EF9263
:1003E000FF920F931F93CF93DF93CDB7DEB7A09704
:1003F0000FB6F894DEBF0FBECDBF1A8E198E80E007
:10040000C82E81E0D82EF601808191810197482F76
:100410009C8F8B8F1E8E1D8E92E0E92E91E0F92E1F
:10042000F701808191818F8F98A300E010E020E098
:100430003A8D5C8D60E07E8D0E9406061A8A198ACC
:10044000F601808191810197482F9C8B8B8B1E8AAE
:100450001D8A83E18F8B188E0FEF1FEF20E03A8902
:100460005C8960E07E8990E00E94060662E070E0B0
:100470008DE090E00E941E0880E090E00E9433082A
:100480008FEF9FEF0E942E0881E491E00E940B08FD
:10049000F601C080D180F701E080F18085E0282F4F
:1004A00089871A86C6010597482F9C878B8780E22B
:1004B000682F8D871E86C7010597988B8F8730E040
:1004C0005C8570E098890E940606F7E0CF1AD10893
:1004D0004C2DDC82CB82C701079798878F8397E0EA
:1004E000292F99831A8292E2692F9D831E8200E050
:1004F00010E030E05C8170E098850E94060667E1BC
:1005000070E08DE090E00E941E088FEF9FEF0E9448
:10051000330880E090E00E942E0888E491E00E9479
:100520000B0862E270E087E090E00E9438084FE438
:1005300051E060E070E080E090E00E94440843E514
:1005400051E060E070E081E090E00E94440847E5FF
:1005500051E060E070E082E090E00E9444084BE5EA
:1005600051E062E070E080E090E00E9444084FE5D6
:1005700051E062E070E081E090E00E94440843E6D0
:1005800051E062E070E082E090E00E94440847E6BB
:1005900051E060E070E083E090E00E94440841E7B1
:1005A00051E060E070E084E090E00E9444084AE797
:1005B00051E060E070E085E090E00E94440843E88C
:1005C00051E060E070E086E090E00E9444084CE872
:1005D00051E060E070E087E090E00E94440844E968
:1005E00051E060E070E088E090E00E9444084DE94E
:1005F00051E060E070E089E090E00E94440842EA47
:1006000051E060E070E08AE090E00E94440847EA30
:1006100051E064E070E084E090E00E94440849EA20
:1006200051E064E070E085E090E00E9444084BEA0D
:1006300051E064E070E086E090E00E9444084BEAFC
:1006400051E064E070E087E090E00E9444084BEAEB
:1006500051E064E070E088E090E00E94440840EAE5
:1006600051E064E070E089E090E00E9444084BEAC9
:1006700051E064E070E08AE090E0A0960FB6F89454
:10068000DEBF0FBECDBFDF91CF911F910F91FF90C5
:10069000EF90DF90CF900C94440881B1807F81B9B6
:1006A000EAE7F0E08081866880830895E0E8F0E082
:1006B00080818083E1E8F0E08081886080838081B0
:1006C000826080838BED95E0909389008093880011
:1006D000EFE6F0E08081826080830895579AE0EB36
:1006E000F0E0808183688083E1EBF0E080818160CD
:1006F00080831092B300089581B18F7881B982B15F
:100700008F7882B98AB18F618AB919B8089520E0CB
:1007100030E040E251E40E94200B20E030E04FE75F
:1007200053E40E94850C20E030E040E05FE30E944B
:10073000BC0A0E94880B6093B300089590B121E039
:1007400030E001C0220F8A95EAF7892F82230895AD
:100750009BB121E030E0082E01C0220F0A94EAF795
:10076000662321F0209529232BB90895922B9BB95C
:1007700008956091D2017091D3018091D40190913C
:10078000D50125E030E040E050E00E948D0ACA012A
:10079000B9010E94B90B089580937C0080917A0082
:1007A000806480937A0080917A0086FDFCCF8091EE
:1007B0007800909179000895CF92DF92EF92FF92A6
:1007C0000F931F93CF93DF937C018B01FA01E90113
:1007D0002081318142815381648175818681978135
:1007E000A1E00E94AF0A2083318342835383648354
:1007F000758386839783F7016081718180E090E043
:100800000E94B90B20E030EC4FE754E40E94200B2B
:1008100023E333E343ED50E40E94850C23E333E309
:1008200043E550E40E94BB0A6B017C01F801608142
:10083000718180E090E00E94B90B20E030EC4FE73E
:1008400054E40E94200B23E333E343ED50E40E9481
:10085000850C23E333E343E550E40E94BB0A9B018C
:10086000AC01C701B6010E94850C27E137EB41EDD1
:100870005AE30E94850C9B01AC01688179818A81D1
:100880009B810E94BC0A688379838A839B83DF9162
:10089000CF911F910F91FF90EF90DF90CF9008952F
:1008A0000F931F93CF93DF938C01FB01EA0120810B
:1008B00031814281538164817581868197810E9453
:1008C000F60B27E137EB41ED5AE30E94850C9B01C3
:1008D000AC01F80160817181828193810E94200BBB
:1008E000688379838A839B83DF91CF911F910F91D6
:1008F0000895BF92CF92DF92EF92FF920F931F93D2
:10090000CF93DF931F92CDB7DEB7B62EF72EC42E4E
:10091000E22ED02EFC0160817181828193810B2DAA
:100920001F2D21E043E059830E94E80CFF92BF9203
:10093000EDEAF1E0FF93EF9359815F93CF925983F2
:100940000E94090D0F900F900F900F900F900F9035
:100950006D2D70E04C2D59818E2D90E00F90DF9120
:10096000CF911F910F91FF90EF90DF90CF90BF90AC
:100970000C9444088F92AF92CF92EF92FF920F9314
:100980001F93CF93DF93CDB7DEB728970FB6F894B8
:10099000DEBF0FBECDBF69837A838B839C832D839B
:1009A0003E834F835887F02E1D8902E029E04EEEEA
:1009B00051E06AED71E0CE0101960E9479042AE0CF
:1009C0004EEE51E06AED71E0CE0105960E94790489
:1009D00025E04EEE51E06AED71E0CE0147960E94AF
:1009E000790427E04EEE51E06AED71E0CE014B96BE
:1009F0000E94790428E04EEE51E06AED71E0CE01EC
:100A00004F960E947904FF2019F041EB51E002C09B
:100A100045EB51E061E070E080E090E00E94440826
:100A2000EE2019F041EB51E002C045EB51E061E0EE
:100A300070E081E090E00E944408CC2019F041EB86
:100A400051E002C045EB51E061E070E082E090E0EF
:100A50000E944408AA2019F041EB51E002C045EB86
:100A600051E063E070E080E090E00E94440888205C
:100A700019F041EB51E002C045EB51E063E070E05A
:100A800081E090E00E9444088C89882319F041EBB2
:100A900051E002C045EB51E063E070E082E090E09D
:100AA0000E944408111106C08E89811108C049EBCB
:100AB00051E007C0113019F44FEB51E002C047EC90
:100AC00051E062E070E083E090E00E9444082896E4
:100AD0000FB6F894DEBF0FBECDBFDF91CF911F914F
:100AE0000F91FF90EF90CF90AF908F90089585B7C2
:100AF000806885BF85B7806885BF8FE784B98FEF31
:100B000087B90C94E10890930501809304012C9817
:100B100026E328B92B982B9A2C9A009771F480EF32
:100B200090E0909301018093000180E491E0909324
:100B300003018093020188E431C08130910571F492
:100B400080E491E0909301018093000180EF90E0B8
:100B5000909303018093020188EE20C082309105BA
:100B600071F480EF90E0909301018093000180E4A4
:100B700091E0909303018093020188E80FC00397EE
:100B800081F480E491E0909301018093000180EF73
:100B900090E0909303018093020188E288B92B983A
:100BA0002B9A2C988AE288B92B982B9A2C9A18B8F1
:100BB0002B982B9A18B82B982B9A80910001909122
:100BC0000101019798B92B982B9A809100018150CF
:100BD00088B92B982B9A2C988BE288B92B982B9A52
:100BE0002C9A18B82B982B9A18B82B982B9A80917E
:100BF000020190910301019798B92B982B9A80914B
:100C00000201815088B92B982B9A08950F931F9356
:100C1000CF93DF93CDB7DEB728970FB6F894DEBF3A
:100C20000FBECDBF29833A834B835C83E62F6D8350
:100C3000F72F7E838F83988729813A814B815C814E
:100C4000BF01EF81F8852C988AE288B92B982B9AFE
:100C50002C9A38B92B982B9A28B92B982B9A58B9DB
:100C60002B982B9A48B92B982B9A2C988BE288B901
:100C70002B982B9A2C9A78B92B982B9A68B92B9889
:100C80002B9AF8B92B982B9AE8B92B982B9A2C9879
:100C90008CE288B92B982B9A2C9A4217530778F03C
:100CA000CB01E817F90740F018B92B982B9A08B92F
:100CB0002B982B9A0196F5CF2F5F3F4FEECF2896BA
:100CC0000FB6F894DEBF0FBECDBFDF91CF911F915D
:100CD0000F9108950F931F93CF93DF93CDB7DEB796
:100CE00028970FB6F894DEBF0FBECDBF29833A8395
:100CF0004B835C83E62F6D83F72F7E838F839887EA
:100D000029813A814B815C81BF01AF81B8852C98E4
:100D10008AE288B92B982B9A2C9A38B92B982B9A5F
:100D200028B92B982B9A58B92B982B9A48B92B98FD
:100D30002B9A2C988BE288B92B982B9A2C9A78B9FD
:100D40002B982B9A68B92B982B9AB8B92B982B9A79
:100D5000A8B92B982B9A2C988CE288B92B982B9AAF
:100D60002C9A42175307A0F0F801CB018F01A81766
:100D7000B90758F0118118B92B982B9A128118B91C
:100D80002B982B9A01963496F1CF2F5F3F4FE9CFE6
:100D900028960FB6F894DEBF0FBECDBFDF91CF917E
:100DA0001F910F9108950F931F93CF93DF93CDB7AA
:100DB000DEB728970FB6F894DEBF0FBECDBF1092F6
:100DC00007011092060110920901109208011A827F
:100DD000198280910001909101010197482F9C8315
:100DE0008B831E821D8280910201909103010197E5
:100DF00098878F8300910C0110910D0120E03A81BA
:100E00005C8160E07E8198850E94060628960FB678
:100E1000F894DEBF0FBECDBFDF91CF911F910F9130
:100E200008952C982AE228B92B982B9A2C9A98B9D5
:100E30002B982B9A88B92B982B9A98B92B982B9A88
:100E400088B92B982B9A2C988CE288B92B982B9ADE
:100E50002C9A4617570798F090910D0198B92B9846
:100E60002B9A80910C0188B92B982B9A98B92B98C2
:100E70002B9A88B92B982B9A6F5F7F4FEACF0895F2
:100E8000CF92DF92EF92FF920F931F93CF93DF9356
:100E9000209106013091070100910801109109018C
:100EA00090EE980F9F3508F0ADC0780197E0E90EFD
:100EB000F11C992787FD9095809745E0489FF001A8
:100EC000499FF00D1124E458FF4F2C988BE288B90C
:100ED0002B982B9A2C9A18B92B982B9A08B92B98E7
:100EE0002B9AC8010F9698B92B982B9A88E08E0DF3
:100EF00088B92B982B9AE901B901675F7F4F8AE285
:100F0000D82E9CE2C92E6C177D0708F453C02C988C
:100F1000D8B82B982B9A2C9AD8B92B982B9AC8B959
:100F20002B982B9AD8B92B982B9AC8B92B982B9A17
:100F30002C98C8B82B982B9A2C9ACE01821B930B15
:100F4000AF0180FF02C04F5F5F4FE491C801A1E095
:100F5000E816F90660F1FA2FFE2319F0B0910B01A3
:100F600002C0B0910D01B8B92B982B9AFF2319F04C
:100F7000B0910A0102C0B0910C01B8B92B982B9A1C
:100F8000FF2319F0B0910B0102C0B0910D01B8B967
:100F90002B982B9AFF2319F0F0910A0102C0F091CF
:100FA0000C01F8B92B982B9A0196AA0FD1CF219654
:100FB000FA01A9CFA701B801CE010E941107A7012C
:100FC000B801CE0101960E9411078091060190910F
:100FD00007010C9690930701809306012091000170
:100FE000309101018217930768F010920701109267
:100FF00006018091080190910901409690930901A2
:1010000080930801DF91CF911F910F91FF90EF9096
:10101000DF90CF9008951F93CF93DF93EC0110E002
:10102000FE01E10FF11D8081882321F00E9440071D
:101030001F5FF6CFDF91CF911F910895813F9105FA
:1010400060F4613421E0720740F4909307018093CB
:1010500006017093090160930801089590930D01B2
:1010600080930C01089590930B0180930A010895D9
:1010700008969093D9018093D801665F7F4F709353
:10108000D7016093D60108950F931F93CF93DF93F9
:10109000EA016230710509F453C000F5611571056C
:1010A000F1F16130710509F085C08C0154E0000F49
:1010B000111F5A95E1F78091D6019091D701080F41
:1010C000191F609100017091010180E090E00E9481
:1010D000B90B20E030E040E85EE363C063307105A7
:1010E00009F447C06430710509F064C08C0124E044
:1010F000000F111F2A95E1F78091D6019091D70139
:10110000080F191F609100017091010180E090E0CB
:101110000E94B90B26E636E646E65FE342C0BC0114
:10112000E4E0660F771FEA95E1F78091D601909190
:10113000D701680F791F8091D8019091D90138C0EB
:101140008C0144E0000F111F4A95E1F78091D60110
:101150009091D701080F191F609100017091010152
:1011600080E090E00E94B90B20E030E040E05FE3D7
:1011700018C08C0134E0000F111F3A95E1F78091FF
:10118000D6019091D701080F191F6091000170914D
:10119000010180E090E00E94B90B20E030E040E4E3
:1011A0005FE30E94850C0E948D0BDC01CB01B8012E
:1011B0000E941E08CE01DF91CF911F910F910C94D8
:1011C0000B082A9887EA91E60197F1F700C0000022
:1011D0002A9A87EA91E60197F1F700C000002C9A5D
:1011E0002B9A2D9A289829982E9A2C9888E288B9BB
:1011F0002B982B9A2C9A2C9881E188B92B982B9AB2
:101200002C9A87E99AE30197F1F700C000002C9827
:101210008BEC88B92B982B9A2C9A81E088B92B9863
:101220002B9A2C9880EC88B92B982B9A2C9A86E2D2
:1012300088B92B982B9A88E088B92B982B9A2C98F0
:1012400081EC88B92B982B9A2C9A80E188B92B983D
:101250002B9A2C9885EC88B92B982B9A2C9A85E39D
:1012600088B92B982B9A8EE388B92B982B9A2C98B7
:1012700086E388B92B982B9A2C9A88E488B92B9806
:101280002B9A2C9880EB88B92B982B9A2C9A8AE46D
:1012900088B92B982B9A2C9881EB88B92B982B9A8C
:1012A0002C9A18B82B982B9A8BE188B92B982B9AEB
:1012B0002C9886EB88B92B982B9A2C9AECE3F1E0CA
:1012C000819188B92B982B9A91E0E034F907C1F706
:1012D0002C9887EC88B92B982B9A2C9A85EB88B997
:1012E0002B982B9A2C9886EF88B92B982B9A2C9AAE
:1012F000E8E3F1E0819188B92B982B9A81E0EB33F8
:10130000F807C1F72C9882EF88B92B982B9A2C9A62
:1013100018B82B982B9A2C9886E288B92B982B9A80
:101320002C9A81E088B92B982B9A2C988AE388B95B
:101330002B982B9A2C9A85E588B92B982B9A2C9868
:1013400080EE88B92B982B9A2C9AE8E2F1E08191F3
:1013500088B92B982B9A91E0E733F907C1F72C98BD
:1013600081EE88B92B982B9A2C9AE8E1F1E08191D3
:1013700088B92B982B9A81E0E732F807C1F72C98AF
:101380008AE288B92B982B9A2C9AE3E1F1E08191BB
:1013900088B92B982B9A91E0E731F907C1F72C987F
:1013A0008BE288B92B982B9A2C9AEEE0F1E0819190
:1013B00088B92B982B9A81E0E231F807C1F72C9875
:1013C00084E388B92B982B9A2C9A2C9884EB88B9B3
:1013D0002B982B9A2C9A18B82B982B9A2C9887EB31
:1013E00088B92B982B9A2C9A87E088B92B982B9A3E
:1013F0002C988CE288B92B982B9A2C9A20EF30E00D
:1014000080E491E018B82B982B9A18B82B982B9A57
:1014100001970097B9F7215031092115310581F75E
:101420002C9889E288B92B982B9A2C9A83ED90E31B
:101430000197F1F700C00000299A0895CF93DF9338
:1014400000D000D0CDB7DEB70E94770580E090E0F5
:101450000E9483050E94ED010E944D030E945603E5
:101460000E946E030E947C035A9A5B9A5C9A589A77
:10147000599A1092B300789415E0C090D201D090A0
:10148000D301E090D401F090D5018AE0C80ED11CC0
:10149000E11CF11CA12CB12C8091D2019091D301BF
:1014A000A091D401B091D5018C159D05AE05BF0565
:1014B00090F480E00E94CC0381E00E94CC038F5F17
:1014C000914097FF03C0919581959109A816B9069F
:1014D00018F75C01E1CF115081F6B50180E090E092
:1014E0000E94B90B20E030E040E05BE30E94850CF5
:1014F00023E333E343E550E40E94850C69837A8358
:101500008B839C8301E02AE04EEE51E06AED71E0AE
:10151000CE0101960E947904AFCFA1E21A2EAA1B38
:10152000BB1BFD010DC0AA1FBB1FEE1FFF1FA21793
:10153000B307E407F50720F0A21BB30BE40BF50B90
:10154000661F771F881F991F1A9469F76095709519
:10155000809590959B01AC01BD01CF0108950024B9
:10156000A7FD00942A0F301D401D501D601D701DE9
:10157000801D901D08955058BB27AA270ED08BC1FF
:101580007CD130F081D120F031F49F3F11F41EF472
:1015900071C10EF4E095E7FB67C1E92F8DD180F3AF
:1015A000BA17620773078407950718F071F49EF560
:1015B000A5C10EF4E0950B2EBA2FA02D0B01B90199
:1015C00090010C01CA01A0011124FF27591B99F0B9
:1015D000593F50F4503E68F11A16F040A22F232FC5
:1015E000342F4427585FF3CF469537952795A79515
:1015F000F0405395C9F77EF41F16BA0B620B730BBC
:10160000840BBAF09150A1F0FF0FBB1F661F771F2C
:10161000881FC2F70EC0BA0F621F731F841F48F4E1
:10162000879577956795B795F7959E3F08F0B3CF67
:101630009395880F08F09927EE0F97958795089551
:101640000CD029C121D140F018D130F021F45F3FF6
:1016500019F00AC1511153C10DC12ED198F399232C
:10166000C9F35523B1F3951B550BBB27AA27621766
:101670007307840738F09F5F5F4F220F331F441FAB
:10168000AA1FA9F333D00E2E3AF0E0E830D09150E3
:101690005040E695001CCAF729D0FE2F27D0660FD0
:1016A000771F881FBB1F261737074807AB07B0E80F
:1016B00009F0BB0B802DBF01FF2793585F4F2AF025
:1016C0009E3F510568F0D0C01AC15F3FECF3983ED1
:1016D000DCF3869577956795B795F7959F5FC9F782
:1016E000880F911D9695879597F90895E1E0660F0B
:1016F000771F881FBB1F621773078407BA0720F084
:10170000621B730B840BBA0BEE1F88F7E0950895EC
:1017100004D06894B111F3C00895D6D088F09F57D3
:1017200090F0B92F9927B751A0F0D1F0660F771F2D
:10173000881F991F1AF0BA95C9F712C0B13081F00D
:10174000DDD0B1E00895DAC0672F782F8827B85F21
:1017500039F0B93FCCF3869577956795B395D9F76E
:101760003EF490958095709561957F4F8F4F9F4F78
:101770000895E89409C097FB3EF490958095709584
:1017800061957F4F8F4F9F4F9923A9F0F92F96E9CD
:10179000BB279395F695879577956795B795F11142
:1017A000F8CFFAF4BB0F11F460FF1BC06F5F7F4FDF
:1017B0008F4F9F4F16C0882311F096E911C07723F1
:1017C00021F09EE8872F762F05C0662371F096E8FA
:1017D000862F70E060E02AF09A95660F771F881FC9
:1017E000DAF7880F9695879597F90895E894F92F79
:1017F00096EBFF2381F0121613061406440B939503
:10180000F69587957795679557954040FF23B9F7EB
:101810001BC099270895882351F49850D2F7872B3D
:10182000762F652F542F432F322F20E0B1F312165D
:1018300013061406440B88233AF09A95440F551F5B
:10184000661F771F881FCAF755234AF4440F551F98
:1018500011F460FF04C06F5F7F4F8F4F9F4F880F61
:101860009695879597F9089597F99F6780E870E0B6
:1018700060E008959FEF80EC089500240A94161606
:10188000170618060906089500240A94121613066E
:10189000140605060895092E0394000C11F48823FC
:1018A00052F0BB0F40F4BF2B11F460FF04C06F5F18
:1018B0007F4F8F4F9F4F089557FD9058440F551FEE
:1018C00059F05F3F71F04795880F97FB991F61F0C2
:1018D0009F3F79F087950895121613061406551F39
:1018E000F2CF4695F1DF08C0161617061806991FA5
:1018F000F1CF86957105610508940895E894BB279A
:1019000066277727CB0197F908950BD0C4CFB5DFB1
:1019100028F0BADF18F0952309F0A6CFABCF112439
:10192000EECFCADFA0F3959FD1F3950F50E0551F7E
:10193000629FF001729FBB27F00DB11D639FAA2724
:10194000F00DB11DAA1F649F6627B00DA11D661F73
:10195000829F2227B00DA11D621F739FB00DA11D94
:10196000621F839FA00D611D221F749F3327A00D4E
:10197000611D231F849F600D211D822F762F6A2FEA
:1019800011249F5750408AF0E1F088234AF0EE0F6F
:10199000FF1FBB1F661F771F881F91505040A9F77C
:1019A0009E3F510570F060CFAACF5F3FECF3983EA9
:1019B000DCF3869577956795B795F795E7959F5FE3
:1019C000C1F7FE2B880F911D9695879597F908957D
:1019D000EF920F931F93CF93DF93E80147FF02C06D
:1019E00034E101C034E0E42FFF27E7FDF095F7FF75
:1019F00003C0F195E195F109E32E022F2E2FAE01E0
:101A00000E94FD0ECE01DF91CF911F910F91EF90BB
:101A10000895AEE0B0E0EFE0FDE00C9407120D8910
:101A20001E8986E08C831A8309838FEF9FE79E834C
:101A30008D83AE01475E5F4F6F89788DCE01019631
:101A40000E942B0DEF81F885E00FF11F10822E967A
:101A5000E4E00C942312ACE0B0E0E1E3FDE00C9490
:101A6000F9117C016B018A01FC01178216828381C6
:101A700081FFBDC1CE0101964C01F7019381F601B2
:101A800093FD859193FF81916F01882309F4ABC188
:101A9000853239F493FD859193FF81916F018532F1
:101AA00029F4B70190E00E946911E7CF512C312C45
:101AB00020E02032A0F48B3269F030F4803259F00B
:101AC000833269F420612CC08D3239F0803339F4CF
:101AD000216026C02260246023C0286021C027FD29
:101AE00027C030ED380F3A3078F426FF06C0FAE010
:101AF0005F9E300D1124532E13C08AE0389E300DA6
:101B00001124332E20620CC08E3221F426FD6BC1CD
:101B1000206406C08C3611F4206802C0883641F477
:101B2000F60193FD859193FF81916F018111C1CFE2
:101B3000982F9F7D9554933028F40C5F1F4FFFE33F
:101B4000F9830DC0833631F0833771F0833509F0A6
:101B50005BC022C0F801808189830E5F1F4F44243F
:101B60004394512C540115C03801F2E06F0E711CE2
:101B7000F801A080B18026FF03C0652D70E002C08F
:101B80006FEF7FEFC5012C870E945E112C0183014E
:101B90002C852F77222E17C03801F2E06F0E711CB2
:101BA000F801A080B18026FF03C0652D70E002C05F
:101BB0006FEF7FEFC5012C870E9453112C012C85FC
:101BC0002068222E830123FC1BC0832D90E0481641
:101BD0005906B0F4B70180E290E00E9469113A948E
:101BE000F4CFF50127FC859127FE81915F01B701B4
:101BF00090E00E94691131103A94F1E04F1A5108B7
:101C00004114510471F7E5C0843611F0893639F575
:101C1000F80127FF07C060817181828193810C5F89
:101C20001F4F08C060817181882777FD8095982FAC
:101C30000E5F1F4F2F76B22E97FF09C090958095AB
:101C4000709561957F4F8F4F9F4F2068B22E2AE08D
:101C500030E0A4010E949B11A82EA81844C085372B
:101C600029F42F7EB22E2AE030E025C0F22FF97F32
:101C7000BF2E8F36C1F018F4883579F0B4C08037A4
:101C800019F0883721F0AFC02F2F2061B22EB4FE9B
:101C90000DC08B2D8460B82E09C024FF0AC09F2F71
:101CA0009660B92E06C028E030E005C020E130E0A3
:101CB00002C020E132E0F801B7FE07C06081718107
:101CC000828193810C5F1F4F06C06081718180E02B
:101CD00090E00E5F1F4FA4010E949B11A82EA81830
:101CE000FB2DFF77BF2EB6FE0BC02B2D2E7FA5142C
:101CF00050F4B4FE0AC0B2FC08C02B2D2E7E05C0E5
:101D00007A2C2B2D03C07A2C01C0752C24FF0DC01A
:101D1000FE01EA0DF11D8081803311F4297E09C096
:101D200022FF06C07394739404C0822F867809F052
:101D3000739423FD13C020FF06C05A2C731418F4AB
:101D4000530C5718732C731468F4B70180E290E0B9
:101D50002C870E94691173942C85F5CF731410F4AD
:101D6000371801C0312C24FF12C0B70180E390E086
:101D70002C870E9469112C8522FF17C021FF03C008
:101D800088E590E002C088E790E0B7010CC0822FA0
:101D9000867859F021FD02C080E201C08BE227FD68
:101DA0008DE2B70190E00E946911A51438F4B701E3
:101DB00080E390E00E9469115A94F7CFAA94F4014D
:101DC000EA0DF11D8081B70190E00E946911A11018
:101DD000F5CF332009F451CEB70180E290E00E94A4
:101DE00069113A94F6CFF7018681978102C08FEF8F
:101DF0009FEF2C96E2E10C9415126F927F929F92C6
:101E0000AF92BF92CF92DF92EF92FF920F931F9308
:101E1000CF93DF93CDB7DEB729970FB6F894DEBF27
:101E20000FBECDBF6A01B22E102F0C3320F4FF2459
:101E3000F394F00E02C04CE3F42E0F2D27E0AE0118
:101E40004F5F5F4F0E947B107981272F29702130CF
:101E500031F0E1FC06C0E0FC06C060E005C06DE2C8
:101E600003C06BE201C060E2AE2DA07173FF36C00B
:101E7000662311F084E001C083E08B1510F4B81ADA
:101E800001C0B12CA1110BC0F6018B2D90E288236B
:101E900019F091938150FBCFCB0CD11CB12C662350
:101EA00031F0F601608396012F5F3F4F6901C60153
:101EB0000396E2FE05C02EE4F601208331E404C05F
:101EC0002EE6F601208331E631832283FC012B2D9F
:101ED00030E22223F1F131932150FBCF72FF40C059
:101EE000662311F084E001C083E08B1510F4B81A6A
:101EF00001C0B12CA1110BC0F6018B2D90E28823FB
:101F000019F091938150FBCFCB0CD11CB12C6623DF
:101F100031F0F601608396012F5F3F4F6901C601E2
:101F20000396E2FE07C029E4F60120832EE4218314
:101F300026E406C029E6F60120832EE6218326E664
:101F40002283FC012B2D30E2222319F03193215002
:101F5000FBCFFC01EB0DF11D10828EEF9FEFB7C0A0
:101F6000B1E0611101C0B0E04B2F50E01816190626
:101F700024F49C012F5F3F4F02C021E030E0240F8A
:101F8000351F112329F0412F50E04F5F5F4F02C0F2
:101F900040E050E0420F531F2B2D30E04217530713
:101FA00014F4B41A01C0B12C2E2D287159F4F60185
:101FB0002B2D30E2222319F031932150FBCFCB0C93
:101FC000D11CB12CBB2331F0F601608396012F5F49
:101FD0003F4F6901A1110BC0F6012B2D30E32223E5
:101FE00019F031932150FBCFCB0CD11CB12CF80E42
:101FF0000A81372F3071A32E74FF03C0013309F417
:10200000FA941F142CF42F2D293018F028E001C069
:1020100021E0682F392F97FF02C060E030E0462FA3
:10202000532F612C712C3EE2932EBC01621B71096F
:102030009B01DC01A41BB50BE1E0F0E0EC0FFD1F00
:10204000AE0FBF1FE12EF12CF194E194F1084F3F48
:10205000FFEF5F0731F4F6019082B6016F5F7F4FAB
:102060006B01841795074CF02417350734F4BD0134
:10207000660D771DFB01118101C010E3415051092C
:10208000FFEF6F1A7F0AB6016F5F7F4F4E155F0536
:1020900024F0F60110836B01DACF4817590739F4A1
:1020A000063320F4053319F4A11001C011E3F60141
:1020B0001083FB018B2D90E2882319F091938150BE
:1020C000FBCFFB01EB0DF11D108280E090E0299623
:1020D0000FB6F894DEBF0FBECDBFDF91CF911F9139
:1020E0000F91FF90EF90DF90CF90BF90AF909F90B7
:1020F0007F906F900895283008F027E03327DA01A9
:10210000990F311D87FD916000966105710539F4C5
:1021100032602E5F3D9330E32A95E1F708959F3FAB
:1021200030F080387105610509F03C5F3C5F3D93FC
:10213000913008F08068911DDF93CF931F930F9328
:10214000FF92EF92192F987F9695E92F9695969585
:10215000E90FFF27EF54FD4F99273327EE24FF2483
:10216000A701E70105900894079428F4360FE71EAD
:10217000F81E491F511D660F771F881F991F06946F
:10218000A1F70590079428F4E70EF81E491F561F83
:10219000C11D770F881F991F661F0694A1F7059030
:1021A000079428F4F80E491F561FC71FD11D880F2A
:1021B000991F661F771F0694A1F70590079420F4D6
:1021C000490F561FC71FD81F990F661F771F881FFB
:1021D0000694A9F784911095177041F0D695C7958C
:1021E00057954795F794E7941A95C1F7E7E5F2E01C
:1021F00068941590159135916591959105907FE2C0
:102200007395E118F10A430B560BC90BD009C0F7BF
:10221000E10CF11E431F561FC91FD01D7EF4703301
:1022200011F48A95E6CFE894015030F0080F0AF4D3
:102230000027021708F4202F2395022F7A3328F065
:1022400079E37D932A95E9F710C07D932A9589F665
:10225000069497956795379517951794E118F10AA5
:10226000430B560BC90BD00998F023957E917395BB
:102270007A3308F070E37C932013B8F77E91706195
:102280007D9330F0839571E37D9370E32A95E1F7B8
:102290001124EF90FF900F911F91CF91DF9199271B
:1022A00087FD90950895FC010590615070400110E4
:1022B000D8F7809590958E0F9F1F0895FC0161506F
:1022C000704001900110D8F7809590958E0F9F1F58
:1022D00008950F931F93CF93DF93182F092FEB01CE
:1022E0008B8181FD03C08FEF9FEF20C082FF10C064
:1022F0004E815F812C813D81421753077CF4E88138
:10230000F9819F012F5F3F4F39832883108306C0D7
:10231000E885F985812F0995892B29F72E813F8141
:102320002F5F3F4F3F832E83812F902FDF91CF91DF
:102330001F910F910895FA01AA27283051F12031F9
:1023400081F1E8946F936E7F6E5F7F4F8F4F9F4F49
:10235000AF4FB1E03ED0B4E03CD0670F781F891F8B
:102360009A1FA11D680F791F8A1F911DA11D6A0F59
:10237000711D811D911DA11D20D009F468943F910C
:102380002AE0269F11243019305D3193DEF6CF010B
:102390000895462F4770405D4193B3E00FD0C9F7D1
:1023A000F6CF462F4F70405D4A3318F0495D31FD3E
:1023B0004052419302D0A9F7EACFB4E0A695979591
:1023C000879577956795BA95C9F700976105710567
:1023D00008959B01AC010A2E0694579547953795B1
:1023E0002795BA95C9F7620F731F841F951FA01D0B
:1023F00008952F923F924F925F926F927F928F92A9
:102400009F92AF92BF92CF92DF92EF92FF920F9383
:102410001F93CF93DF93CDB7DEB7CA1BDB0B0FB68D
:10242000F894DEBF0FBECDBF09942A88398848884A
:102430005F846E847D848C849B84AA84B984C884E0
:10244000DF80EE80FD800C811B81AA81B981CE0FD7
:10245000D11D0FB6F894DEBF0FBECDBFED010895BC
:04246000F894FFCF1E
:10246400F0004001000000000000FFFF0000000039
:10247400013F00000000EF000025270510093A780D
:102484004D05180D383A1F001F1A180A0F06458704
:10249400320A070207050000010000000A82270033
:1024A400005465616D204800537461747573004372
:1024B400313A0043323A0043333A0053313A00533D
:1024C400323A0053333A00425F5374617475733A7D
:1024D40000425F4C6576656C3A00255F4D61696E1C
:1024E400733A00495F4D61696E733A00495F5769F9
:1024F4006E643A00495F536F6C61723A0042425F06
:10250400560042425F43004A0025004100253773CC
:1025140000596573004E6F20002049646C650020EB
:102524004368617267650020446973636861726718
:02253400650040
:00000001FF
