:100000000C94A9010C94C6010C94C6010C94C60171
:100010000C94C6010C94C6010C94C6010C94C60144
:100020000C94C6010C94C6010C94C6010C94C60134
:100030000C94C6010C94C8010C94C6010C94C60122
:100040000C94C6010C94C6010C94C6010C94C60114
:100050000C94C6010C94C6010C94C6010C94C60104
:100060000C94C6010C94C6010C94C6010C94C601F4
:100070000C94C6010C94C6010C94C601000000004B
:100080000000005F00000003000300143E143E1453
:10009000242A7F2A124333086661364955225000CC
:1000A00005030000001C2241000041221C0014082E
:1000B0003E081408083E08080050300000080808F0
:1000C0000808006060000020100804023E51494505
:1000D0003E0004027F0042615149462241494936AF
:1000E0001814127F1027454545393E4949493201C8
:1000F000017109073649494936264949493E0036C2
:100100003600000056360000081422410014141472
:100110001414004122140802015109063E415955A8
:100120005E7E0909097E7F494949363E41414122A7
:100130007F4141413E7F494949417F090909013ECB
:100140004141493A7F0808087F00417F4100304023
:1001500040403F7F081422417F404040407F020CD6
:10016000027F7F0204087F3E4141413E7F09090929
:10017000061E2121215E7F09090976264949493257
:1001800001017F01013F4040403F1F2040201F7F71
:100190002010207F41221C2241070870080761516E
:1001A000494543007F41000002040810200000413F
:1001B0007F0004020102044040404040000102046C
:1001C0000020545454787F444444383844444444D0
:1001D000384444447F385454541804047E050508B8
:1001E0005454543C7F0804047800447D400020406F
:1001F000443D007F1028440000417F40007C04788B
:1002000004787C0804047838444444387C1414147A
:1002100008081414147C007C080404485454542026
:1002200004043F44443C4040207C1C2040201C3CB3
:100230004030403C44281028440C5050503C44640A
:10024000544C44000836414100007F0000414136D3
:100250000800020102040200407A10F35A00A07262
:100260004E18090010A5D4E80000E87648170000F1
:10027000E40B54020000CA9A3B000000E1F50500BF
:100280000080969800000040420F000000A0860108
:10029000000000102700000000E8030000000064D8
:1002A00000000000000A0000000000010000000043
:1002B000002C76D888DC674F0823DFC1DFAE59E118
:1002C000B1B796E5E3E453C63AE651997696E8E687
:1002D000C28426EB898C9B62ED407C6FFCEFBC9C5A
:1002E0009F40F2BAA56FA5F490055A2AF75C936B6C
:1002F0006CF9676DC11BFCE0E40D47FEF520E6B527
:1003000000D0ED902E0300943577050080841E0800
:100310000000204E0A000000C80C333333330F981E
:100320006E12831141EF8D2114893BE65516CFFEE5
:10033000E6DB18D1844B381BF77C1D901DA4BBE471
:1003400024203284725E228100C9F124ECA1E53DB3
:10035000270011241FBECFEFD0E1DEBFCDBF13E0D9
:10036000A0E0B1E0E6EEF6E402C005900D92A83AF6
:10037000B107D9F713E0A8EAB3E001C01D92AE3E81
:10038000B107E1F70E94B70A0C9471230C940000A6
:100390001F920F920FB60F9211248F939F93AF93DA
:1003A000BF938091A8039091A903A091AA03B09153
:1003B000AB030196A11DB11D8093A8039093A903DF
:1003C000A093AA03B093AB03BF91AF919F918F917C
:1003D0000F900FBE0F901F90189581B1807F81B94B
:1003E000EAE7F0E08081866880830895E0E8F0E045
:1003F00080818083E1E8F0E0808188608083808173
:10040000826080838BED95E09093890080938800D3
:10041000EFE6F0E08081826080830895579AE0EBF8
:10042000F0E0808183688083E1EBF0E0808181608F
:1004300080831092B300089581B18F7881B982B121
:100440008F7882B98AB18F618AB919B8089520E08E
:1004500030E040E450E40E94E41820E030E04FE750
:1004600053E40E94EA1720E030E040E05FE30E949E
:10047000BD170E94DE1A6093B300089590B121E089
:1004800030E002C0220F331F8A95E2F7892F8223C2
:100490000895382F662359F02BB181E090E002C017
:1004A000880F991F3A95E2F7282B2BB908952BB1A5
:1004B00081E090E002C0880F991F3A95E2F780959D
:1004C00082238BB9089582E060E00E94490283E0B4
:1004D00060E00E94490284E060E00E94490280E0FE
:1004E00060E00E94490281E060E00E94490260E011
:1004F00070E080E090E00E9427020895EF92FF9262
:100500000F931F93E090A803F090A9030091AA0312
:100510001091AB038AE090E0A0E0B0E0E80EF91E95
:100520000A1F1B1F20E030E01AC010927C0080914F
:100530007A00806480937A0080917A0086FDFCCFF7
:1005400040917800509179004F5F514057FF03C0B0
:10055000509541955F4F2417350708F49A01809113
:10056000A8039091A903A091AA03B091AB038E15A3
:100570009F05A007B107C8F2B90180E090E00E9492
:10058000321B20E030E040E05BE30E94EA1720E00D
:1005900030E048EC53E40E94EA1723EF34E045EBE7
:1005A0005FE30E94E4181F910F91FF90EF90089570
:1005B000EF92FF920F931F93E090A803F090A9038E
:1005C0000091AA031091AB038AE090E0A0E0B0E0B4
:1005D000E80EF91E0A1F1B1F20E030E061E01AC080
:1005E00060937C0080917A00806480937A0080918F
:1005F0007A0086FDFCCF40917800509179004F5FE2
:10060000514057FF03C0509541955F4F2417350760
:1006100008F49A018091A8039091A903A091AA03DC
:10062000B091AB038E159F05A007B107C8F2B901C1
:1006300080E090E00E94321B20E030E040E05BE38D
:100640000E94EA1720E030E040E251E40E94EA17FD
:1006500023EF34E045EB5FE30E94E4181F910F9114
:10066000FF90EF90089580937C0080917A008064E1
:1006700080937A0080917A0086FDFCCF20917800EB
:1006800030917900C9010895AF92BF92CF92DF9265
:10069000EF92FF920F931F93CF93DF93FB01EA0139
:1006A00059016801288139814A815B81E080F180AC
:1006B000028113818823D1F08091A8039091A9032E
:1006C000A091AA03B091AB032E193F09400B510B27
:1006D000280F391F4A1F5B1F288339834A835B8396
:1006E00080E060E00E944902F50119C08091A803F2
:1006F0009091A903A091AA03B091AB03E81AF90A5B
:100700000A0B1B0B2E0D3F1D401F511F28833983E1
:100710004A835B8381E060E00E944902F601108217
:10072000DF91CF911F910F91FF90EF90DF90CF90CD
:10073000BF90AF900895EF92FF920F931F93CF93C6
:10074000DF937B01EA018901882369F080E061E0A1
:100750000E94490281E060E00E94490281E08883B2
:10076000F80110820CC080E060E00E94490281E044
:1007700061E00E944902188281E0F8018083809143
:10078000A8039091A903A091AA03B091AB03F7012C
:1007900080839183A283B383DF91CF911F910F91C7
:1007A000FF90EF900895AF92BF92CF92DF92EF92B9
:1007B000FF920F931F93CF93DF93EC015B01FA013C
:1007C000690180812181328143816481A581E68034
:1007D0000781182F1F5F91E0181708F090E0B92FDC
:1007E000B20F81E0B21708F080E0782F730F81E03C
:1007F000731708F080E0582F540F81E0541708F069
:1008000080E0382F360F81E0361708F080E0282F7F
:100810002A0F81E02A1708F080E0982F9E0D81E0D2
:100820009E1508F080E0800F1083B183728353839C
:1008300034832583968387836881798180E090E083
:100840000E94321B20E030EC4FE754E40E94E41891
:1008500023E333E343ED50E40E94EA1723E333E359
:1008600043E550E40E948C177B018C01F501608107
:10087000718180E090E00E94321B20E030EC4FE775
:1008800054E40E94E41823E333E343ED50E40E9470
:10089000EA1723E333E343E550E40E948C179B01FE
:1008A000AC01C801B7010E94EA1727E137EB41ED1F
:1008B0005AE30E94EA179B01AC01F6016081718145
:1008C000828193810E94BD17F601608371838283C8
:1008D0009383DF91CF911F910F91FF90EF90DF9065
:1008E000CF90BF90AF900895EF92FF920F931F9318
:1008F0008C01FB017A012081318142815381648125
:100900007581868197810E94641527E137EB41ED5F
:100910005AE30E94EA179B01AC01F80160817181E2
:10092000828193810E94E418F7016083718382833E
:1009300093831F910F91FF90EF900895DF92EF92B4
:10094000FF920F931F93D62E813009F059C08091EA
:10095000AC038130A9F46091AC0380E00E944902AD
:100960008091A8039091A903A091AA03B091AB0331
:100970008093AD039093AE03A093AF03B093B00305
:100980008091AC038823E1F56091AC030E94490299
:100990008091A8039091A903A091AA03B091AB0301
:1009A0008093B1039093B203A093B303B093B403C5
:1009B000E090BE03F090BF030091C0031091C1030B
:1009C0008091B1039091B203A091B303B091B403AD
:1009D0002091AD033091AE034091AF035091B0032D
:1009E0008E0D9F1DA01FB11F821B930BA40BB50B77
:1009F0008093BE039093BF03A093C003B093C10341
:100A000081E0D81609F059C08091B5038130A1F476
:100A10006091B5030E9449028091A8039091A903B7
:100A2000A091AA03B091AB038093B6039093B70350
:100A3000A093B803B093B9038091B5038823E9F577
:100A40006091B50381E00E9449028091A8039091D2
:100A5000A903A091AA03B091AB038093BA0390932A
:100A6000BB03A093BC03B093BD03E090BE03F09022
:100A7000BF030091C0031091C1038091B603909110
:100A8000B703A091B803B091B9032091BA03309194
:100A9000BB034091BC035091BD038E0D9F1DA01F51
:100AA000B11F821B930BA40BB50B8093BE039093D5
:100AB000BF03A093C003B093C1031F910F91FF9098
:100AC000EF90DF900895EF92FF920F931F93FC0138
:100AD000D90180818C93FB018081F8018083FA0128
:100AE0008081F701808382E06C910E94490283E05B
:100AF000F80160810E94490284E0F70160810E9450
:100B000049021F910F91FF90EF900895EF92FF928D
:100B10000F931F93FC018B017A0182E060810E9498
:100B2000490283E0F80160810E94490284E0F701F4
:100B300060810E9449021F910F91FF90EF900895EC
:100B40002F923F924F925F926F927F928F929F92DD
:100B5000AF92BF92CF92DF92EF92FF920F931F93CB
:100B6000DF93CF93CDB7DEB729970FB6F894DEBFEA
:100B70000FBECDBF89833B015B834A833D832C83BA
:100B80001F830E83F986E886260115018CE090E02C
:100B900061E070E040E051E00E9434130E947E0268
:100BA0005B016C0120E030E04CE553E40E94501AF8
:100BB00088230CF01BC1F3016081718182819381D4
:100BC0002DEC3CEC4CEC5DE30E94BD179B01AC01AD
:100BD000F30120833183428353830E9427028CE0F8
:100BE00090E061E070E04DE051E00E94341380ED50
:100BF00097E02CE231E0F9013197F1F70197D9F74D
:100C00000E947E027B018C018CE090E061E070E04C
:100C10004BE151E00E94341380ED97E02CE231E08B
:100C2000F9013197F1F70197D9F7C801B701A6018A
:100C300095010E94F01918160CF4B5C0EA81FB81E9
:100C40001082F981F23079F0F33009F491C0F1307B
:100C500009F094C08091AC03813029F41092AC0368
:100C600060E00E949E048091BE039091BF03A0911A
:100C7000C003B091C1030B97A105B105B0F0EE8D93
:100C8000FF8D608171818281938120E030E040E8B6
:100C90005FE30E94BD176B017C018091B50388233F
:100CA000A1F481E08093B5030CC0EE8DFF8DC08070
:100CB000D180E280F3808091B503813031F41092CD
:100CC000B50380E061E00E949E04F2011082F10110
:100CD0001082F4011082EC81FD8110811130B1F499
:100CE000C701B6012DEC3CEC4CE45FE30E94F01927
:100CF000181664F4F2011083C701B6012DEC3CEC28
:100D00004CE45FE30E948C176B017C01EE81FF8154
:100D100000810130B1F4C701B60126E636E646EEA1
:100D20005FE30E94F019181664F4F1010083C70113
:100D3000B60126E636E646EE5FE30E948C176B01AD
:100D40007C01E885F9851081113061F4C701B60195
:100D50002DEC3CEC4CE45FE30E94F019181614F4FF
:100D6000F4011083C201B101A4010E94860506C0EE
:100D70001092AC0381E060E00E949E04F301608168
:100D80007181828193812DEC3CEC4CEC5DE30E94FF
:100D90008C179B01AC01F301208331834283538381
:100DA0000E94270223C081E0EA81FB81808314C076
:100DB000F30160817181828193812DEC3CEC4CECDC
:100DC0005DE30E94BD179B01AC01F30120833183D9
:100DD000428353830E9427020E947E0220E030E07B
:100DE0004EE653E40E94501A87FDE2CF81E0E8A16D
:100DF000F9A1808329960FB6F894DEBF0FBECDBF50
:100E0000CF91DF911F910F91FF90EF90DF90CF90E6
:100E1000BF90AF909F908F907F906F905F904F901A
:100E20003F902F900895AF92BF92CF92DF92EF92B2
:100E3000FF920F931F93FC017B016A01B22EA02E3B
:100E4000608171818281938143E021E087010E946A
:100E5000751E00D000D000D0EDB7FEB73196ADB70B
:100E6000BEB71296DC92CE92119789E291E09383FD
:100E70008283F582E4820E94961E8DB79EB7069605
:100E80000FB6F8949EBF0FBE8DBF8B2D90E06A2DDC
:100E900070E0A6010E9434131F910F91FF90EF9014
:100EA000DF90CF90BF90AF9008952F923F924F92D6
:100EB0005F926F927F928F929F92AF92BF92CF92EA
:100EC000DF92EF92FF920F931F93DF93CF93CDB7F3
:100ED000DEB76A970FB6F894DEBF0FBECDBF3C01F8
:100EE0002B011A013A8B298B1C8B0B8BFE8AED8A06
:100EF000D88ECF8ABA8EA98E64018FA498A8A9A88B
:100F0000BAA881E0C816D104E9F48114910409F06B
:100F100041C02091BE033091BF034091C003509166
:100F2000C103E090A803F090A9030091AA031091D7
:100F3000AB038091AD039091AE03A091AF03B0914C
:100F4000B0031FC0C114D10429F5E1E08E1691044D
:100F500009F52091BE033091BF034091C003509129
:100F6000C103E090B603F090B7030091B80310916D
:100F7000B9038091A8039091A903A091AA03B0910D
:100F8000AB03E20EF31E041F151FE81AF90A0A0B41
:100F90001B0B08C0E090BE03F090BF030091C0039C
:100FA0001091C103C801B7010E94321B20E030E656
:100FB0004AE657E40E94E41869837A838B839C8312
:100FC000CE01019666EC73E04AED53E024E002E0C6
:100FD0000E941307F501608171818281938120E075
:100FE00030E048EC52E40E94EA1720E030E040E4B0
:100FF00050E40E94E4186D837E838F839887CE012E
:10100000059666EC73E04AED53E025E00E94130775
:10101000C50166EC73E04AED53E026E00E94130739
:101020008BA99CA966EC73E04AED53E027E00E948F
:1010300013078DA99EA966EC73E04AED53E028E002
:101040000E941307C30166EC73E04AED53E029E008
:101050000E941307C20166EC73E04AED53E02AE0F8
:101060000E9413076091A8037091A9038091AA03BD
:101070009091AB030E94321B20E030E04AE754E439
:101080000E94E41869877A878B879C87CE0109962E
:1010900066EC73E04AED53E02BE00E941307EFA9E2
:1010A000F8AD608170E080E090E00E94321B6D87B7
:1010B0007E878F87988BCE010D9666EC73E04AEDA4
:1010C00053E02FE003E00E941307F10180818823A1
:1010D00039F080E090E061E070E04DE251E006C060
:1010E00080E090E061E070E041E351E00E94341361
:1010F000E989FA898081882339F081E090E061E014
:1011000070E04DE251E006C081E090E061E070E007
:1011100041E351E00E943413EB89FC8980818823EC
:1011200039F082E090E061E070E04DE251E006C00D
:1011300082E090E061E070E041E351E00E9434130E
:10114000ED89FE898081882339F080E090E063E0BA
:1011500070E04DE251E006C080E090E063E070E0B6
:1011600041E351E00E943413EF89F88D8081882398
:1011700039F081E090E063E070E04DE251E006C0BC
:1011800081E090E063E070E041E351E00E943413BD
:10119000E98DFA8D8081882339F082E090E063E068
:1011A00070E04DE251E006C082E090E063E070E064
:1011B00041E351E00E943413F6018081882359F401
:1011C000F4018081882381F483E090E062E070E0A4
:1011D00045E351E00FC0813039F483E090E062E0F4
:1011E00070E04FE351E006C083E090E062E070E021
:1011F00049E451E00E9434136A960FB6F894DEBFBA
:101200000FBECDBFCF91DF911F910F91FF90EF9057
:10121000DF90CF90BF90AF909F908F907F906F9016
:101220005F904F903F902F900895CF92DF92EF9272
:10123000FF920F931F93DF93CF93CDB7DEB7A097A5
:101240000FB6F894DEBF0FBECDBF20915E02309185
:101250005F022150304080916002909161021A82B9
:101260001982422F3C832B831E821D828F83988795
:1012700029813A815C816D817E8100E010E00E94CD
:10128000CF1080915E0290915F0201971A861986B5
:10129000482F9C878B871E861D8683E190E0988B64
:1012A0008F8729853A855C856D857E8598890FEFC6
:1012B0001FEF0E94CF108DE090E062E070E00E948E
:1012C0000E1380E090E00E9423138FEF9FEF0E94A7
:1012D0001E1383E591E00E94FB12E0905E02F09005
:1012E0005F02F7013597C0906002D0906102C6019D
:1012F0000597988F8F8B20E230E0622F3E8B2D8BED
:101300004E2FFC8BEB8BE5E0F0E02E2FFA8BE98B78
:101310003A895C897E89988D0E94CF1089EF9FEF72
:10132000E80EF91E4E2DFC8EEB8EC80ED91ED8A2EB
:10133000CF8E82E290E0682F9E8F8D8F87E090E0C5
:10134000282F9A8F898F3A8D5C8D7E8D8C2D98A158
:1013500000E010E00E94CF108DE090E067E170E0C7
:101360000E940E138FEF9FEF0E94231380E090E006
:101370000E941E138AE591E00E94FB1287E090E034
:1013800062E270E00E94281380E090E060E070E08C
:1013900041E651E00E94341381E090E060E070E0AB
:1013A00045E651E00E94341382E090E060E070E096
:1013B00049E651E00E94341380E090E062E070E082
:1013C0004DE651E00E94341381E090E062E070E06D
:1013D00041E751E00E94341382E090E062E070E067
:1013E00045E751E00E94341383E090E060E070E054
:1013F00049E751E00E94341384E090E060E070E03F
:1014000043E851E00E94341385E090E060E070E032
:101410004CE851E00E94341386E090E060E070E018
:1014200045E951E00E94341387E090E060E070E00D
:101430004EE951E00E94341388E090E060E070E0F3
:1014400046EA51E00E94341389E090E060E070E0E9
:101450004FEA51E00E9434138AE090E060E070E0CF
:1014600045EB51E00E9434138BE090E060E070E0C7
:101470004BEB51E00E9434138CE090E060E070E0B0
:1014800041EC51E00E9434138DE090E060E070E0A8
:1014900046EC51E00E9434138EE090E060E070E092
:1014A0004DEC51E00E9434138FE090E060E070E07A
:1014B00044ED51E00E94341384E090E063E070E07A
:1014C00042EE51E00E94341385E090E064E070E069
:1014D00047EE51E00E94341309EE11E086E090E0FF
:1014E00064E070E0A8010E94341387E090E064E0BB
:1014F00070E0A8010E94341388E090E064E070E09E
:10150000A8010E94341389E090E064E070E04BEEA3
:1015100051E00E9434138AE090E064E070E0A8019A
:101520000E9434138BE090E064E070E04DEE51E0F7
:101530000E9434138DE090E064E070E0A8010E9406
:1015400034138EE090E064E070E0A8010E94341350
:10155000A0960FB6F894DEBF0FBECDBFCF91DF913E
:101560001F910F91FF90EF90DF90CF9008952F92F1
:101570003F924F925F926F927F928F929F92AF9223
:10158000BF92CF92DF92EF92FF920F931F93DF9360
:10159000CF93CDB7DEB7AD970FB6F894DEBF0FBED1
:1015A000CDBF19821A821B821C821D821E8280E09E
:1015B00090E0A0E0B0E089879A87AB87BC8721E004
:1015C0002F838D879E87AF87B88B898B9A8BAB8B48
:1015D000BC8B8D8B9E8BAF8BB88F898F9A8FAB8F87
:1015E000BC8F8D8F9E8FAF8FB8A389A39AA3ABA317
:1015F000BCA318860E94DE1380E090E00E944B108E
:101600000E94150981B1807F81B980917A00866836
:1016100080937A000E94F6010E940E020E941C0232
:1016200078940E9463021AA61BA61CA61DA619A6E2
:101630001DA21EA21FA218A6B5E02B2E312C2C0E27
:101640003D1EA6E04A2E512C4C0E5D1E3E01089414
:10165000611C711C0EC28CE090E061E070E04FEE06
:1016600051E00E94341380B180719981981751F430
:1016700080B180729A81981729F480B180749B811F
:10168000981749F018868CE090E061E070E04DEF2B
:1016900051E00E943413E090BE03F090BF0300912C
:1016A000C0031091C1038091B6039091B703A0913C
:1016B000B803B091B9032091A8033091A9034091D8
:1016C000AA035091AB036091B5036130C1F46F83FD
:1016D0008E0D9F1DA01FB11F821B930BA40BB50B7A
:1016E00080529F4BA240B04048F418868CE090E0B6
:1016F00061E070E04BE052E00E9434131F8282E010
:1017000080937C0080917A00806480937A0080913D
:101710007A0086FDFCCF609178007091790080E0BE
:1017200090E00E94321B20E030EC4FE754E40E942E
:10173000E41820E030E040EA50E40E94EA177B0120
:101740008C01AD88BE88CF88D88C2CEE31E548EB73
:101750005DE30E948C179B01AC01C601B5010E949C
:10176000501A87FD10C0C801B7012CEE31E548EBD7
:101770005DE30E94BD179B01AC01C601B5010E944B
:10178000F01918164CF418868CE090E061E070E0D7
:1017900049E152E00E94341383E080937C00809101
:1017A0007A00806480937A0080917A0086FDFCCF75
:1017B000609178007091790080E090E00E94321B87
:1017C00020E030EC4FE754E40E94E41820E030E0E1
:1017D00040EA50E40E94EA177B018C01A98CBA8C84
:1017E000CB8CDC8C2CEE31E548EB5DE30E948C1752
:1017F0009B01AC01C601B5010E94501A87FD10C0C3
:10180000C801B7012CEE31E548EB5DE30E94BD173E
:101810009B01AC01C601B5010E94F01918164CF4E9
:1018200018868CE090E061E070E046E252E00E94B1
:1018300034138DA19EA1AFA1B8A50097A105B10554
:1018400061F42091A8033091A9034091AA0350911B
:10185000AB032DA33EA34FA358A78091A80390915B
:10186000A903A091AA03B091AB032DA13EA14FA162
:1018700058A5821B930BA40BB50B895E9340A04027
:10188000B04008F47DC08F81813019F569857A8573
:101890008B859C8520E030E040E050E00E94C0193C
:1018A0008823B9F00E947E026D877E878F87988B90
:1018B00020E030E04CE553E40E94501A88234CF4B9
:1018C00018868CE090E061E070E044E352E00E9412
:1018D00034138F81882309F04FC080E090E0A0E4AA
:1018E000B0E489879A87AB87BC87BC01CD010E9491
:1018F00027028981813029F48C81882311F442E008
:1019000049A78A81813029F48D81882311F453E01D
:1019100059A78B81813029F48E81882311F484E0CA
:1019200089A789A561E00E9449020E947E026D8715
:101930007E878F87988B20E030E04CE553E40E944F
:10194000F01918164CF418868CE090E061E070E015
:1019500042E452E00E94341389A560E00E944902EB
:1019600080E090E0A0E0B0E089879A87AB87BC87F1
:10197000BC01CD010E9427021DA21EA21FA218A613
:10198000E090A803F090A9030091AA031091AB0383
:101990006AA57BA58CA59DA528EE33E040E050E02C
:1019A0000E941F1E6E157F058007910708F061C019
:1019B0000E947E026D877E878F87988B0E94D80257
:1019C000698B7A8B8B8B9C8BADB7BEB71A970FB692
:1019D000F894BEBF0FBEADBFEDB7FEB7319625EB95
:1019E00033E012963C932E93119749E050E04C0F50
:1019F0005D1F5383428385E190E08C0F9D1F95838B
:101A00008483A9E1B0E0AC0FBD1FB783A68327E0B4
:101A100030E02C0F3D1F31872087CE010D96BE018F
:101A20006F5E7F4FA3019E012E5F3F4F8E010D5FC2
:101A30001F4FF4E0EF2EF12CEC0EFD1E6101520160
:101A4000ECEA8E2EE3E09E2E0E9455078AA59BA508
:101A5000ACA5BDA50196A11DB11D8AA79BA7ACA7EA
:101A6000BDA7ADB7BEB71A960FB6F894BEBF0FBEEE
:101A7000ADBF8885813009F4EECD8CE090E061E067
:101A800070E040E552E00E943413D0B0D2948FE071
:101A9000D822B1E0DB22D982B0B0B294B69407E08C
:101AA000B022BB22BA82C0B0C294C694C69413E0DE
:101AB000C122CB22CB826D2D70E080E090E00E94AD
:101AC000801A2DEC3CEC4CE45FE30E94EA177B01AA
:101AD0008C016B2D70E080E090E00E94801A26E679
:101AE00036E646EE5FE30E94EA179B01AC01C801AF
:101AF000B7010E94BD177B018C016C2D70E080E066
:101B000090E00E94801A23E333E343EB5FE30E94FB
:101B1000EA179B01AC01C801B7010E94BD176D8F88
:101B20007E8F8F8F98A3DD2021F4BB2011F4CC2071
:101B300051F02DEC3CEC4CE45DE30E94BD176D8F41
:101B40007E8F8F8F98A382E080937C0080917A00B3
:101B5000806480937A0080917A0086FDFCCF60914A
:101B600078007091790080E090E00E94321B20E0C4
:101B700030EC4FE754E40E94E41820E030E040EA03
:101B800050E40E94EA177B018C0183E080937C0083
:101B900080917A00806480937A0080917A0086FD3B
:101BA000FCCF609178007091790080E090E00E9415
:101BB000321B20E030EC4FE754E40E94E41820E0B0
:101BC00030E040EA50E40E94EA179B01AC01698FC3
:101BD0007A8F8B8F9C8FC801B7010E94BD1769A3B4
:101BE0007AA38BA39CA3ED8AFE8A0F8B188FCE015C
:101BF000819666EC73E04AED53E02DE002E00E942E
:101C00001307CE014D9666EC73E04AED53E02EE0EB
:101C10000E941307EDB7FEB73A970FB6F894FEBFD0
:101C20000FBEEDBF319625EB33E0ADB7BEB71296D0
:101C30003C932E93119749E050E04C0F5D1F538366
:101C4000428385E190E08C0F9D1F95838483A9E1F9
:101C5000B0E0AC0FBD1FB783A68327E030E02C0FA8
:101C60003D1F31872087CE010D96BE016F5E7F4FED
:101C7000A3019E012E5F3F4F8E010D5F1F4FA4E019
:101C8000EA2EF12CEC0EFD1E61015201FCEA8F2EB2
:101C9000F3E09F2E0E945507ED8CFE8C0F8D18A14E
:101CA0004DB75EB7465F5F4F0FB6F8945EBF0FBE8D
:101CB0004DBFC801B70120E030E040E050E00E9495
:101CC0009019882369F469A17AA18BA19CA120E0D5
:101CD00030E040E050E00E949019882309F453C09E
:101CE000A9A0BAA0CBA0DCA0C601B501A8019701AC
:101CF0000E94F01918160CF09DC080E090E0A0E062
:101D0000B0E089879A87AB87BC87BC01CD010E9470
:101D100027028091B503813031F41092B50380E041
:101D200061E00E949E0469A17AA18BA19CA12D8DE6
:101D30003E8D4F8D58A10E948C1720E030E040E886
:101D40005FE30E94F019181644F48091AC038130CF
:101D5000D1F081E08093AC0313C08091BE039091D9
:101D6000BF03A091C003B091C10381509345A74028
:101D7000B040D0F08091AC03813029F41092AC03D4
:101D800060E00E949E04C301BE016E5F7F4FAE0102
:101D90004D5F5F4F9E012C5F3F4F810172010E949A
:101DA000630581E0888765CE8091AC03882331F498
:101DB00081E08093AC0360E00E949E0469A17AA157
:101DC0008BA19CA12D8D3E8D4F8D58A10E948C170B
:101DD0009B01AC0160E070E080E89FE30E948C17FB
:101DE0009B01AC0129873A874B875C870E942702B9
:101DF000C301BE016E5F7F4FAE014D5F5F4F9E011D
:101E00002C5F3F4F810172010E94630500D000D01A
:101E1000E1E2F0E0EC0FFD1FADB7BEB71296FC9308
:101E2000EE931197CE01089614969C938E93139778
:101E300083E014C1C801B701A60195010E948C1767
:101E400020E030E040E85FE30E94501A88230CF065
:101E500041C08091B503813031F41092B50380E028
:101E600061E00E949E048091BE039091BF03A09107
:101E7000C003B091C10381509345A740B04048F0E2
:101E80006D8D7E8D8F8D98A129A13AA14BA15CA16A
:101E900051C08091AC03813031F081E08093AC037C
:101EA00060E00E949E046D8D7E8D8F8D98A129A18A
:101EB0003AA14BA15CA10E948C1720E030E040E8E1
:101EC0005FE30E94BD179B01AC0129873A874B87CE
:101ED0005C87A1C08091BE039091BF03A091C00315
:101EE000B091C10381529F4BA240B04008F44EC054
:101EF0008091AC03813029F41092AC0360E00E9421
:101F00009E048091B503813039F081E08093B50360
:101F100080E061E00E949E046D8D7E8D8F8D98A182
:101F200029A13AA14BA15CA10E948C1720E030E0CE
:101F300040E85FE30E948C179B01AC0129873A8738
:101F40004B875C870E942702C301BE016E5F7F4FF3
:101F5000AE014D5F5F4F9E012C5F3F4F81017201CB
:101F60000E94630500D000D0E1E2F0E0EC0FFD1F1D
:101F7000ADB7BEB71296FC93EE931197CE010896BB
:101F800014969C938E93139782E068C08091B5035A
:101F9000813031F41092B50380E061E00E949E042C
:101FA0006D8D7E8D8F8D98A129A13AA14BA15CA149
:101FB0000E948C177B018C0169877A878B879C87AD
:101FC0002AE939E949E95FE30E94BD1720E030E0E2
:101FD00040E450E40E94501A882384F4C801B701F9
:101FE00020E030E040E85FE30E94BD1769877A8710
:101FF0008B879C8781E08093AC0306C08091AC0303
:10200000813029F41092AC0360E00E949E0469853F
:102010007A858B859C850E942702C301BE016E5F75
:102020007F4FAE014D5F5F4F9E012C5F3F4F81019F
:1020300072010E94630500D000D0E1E2F0E0EC0FF5
:10204000FD1FADB7BEB71296FC93EE931197CE016C
:10205000089614969C938E93139781E0BE01675F58
:102060007F4FAE01495F5F4F93018E010E5F1F4F9F
:10207000E3E0EE2EF12CEC0EFD1E94E0C92ED12CE7
:10208000CC0EDD1E510142010E94A0050F900F9061
:102090000F900F90EECC9C019093630280936202AC
:1020A0002C9886E388B92B982B9A2C9A2115310508
:1020B00071F480EF90E090935F0280935E0280E481
:1020C00091E0909361028093600288E432C02130F5
:1020D000310571F480E491E090935F0280935E0299
:1020E00080EF90E0909361028093600288EE21C0BF
:1020F0002230310571F480EF90E090935F0280937D
:102100005E0280E491E0909361028093600288E82F
:1021100010C02330310581F480E491E090935F0298
:1021200080935E0280EF90E0909361028093600262
:1021300088E288B92B982B9A2C988AE288B92B9838
:102140002B9A2C9A18B82B982B9A18B82B982B9A54
:1021500080915E0290915F02019798B901962B9849
:102160002B9A815088B92B982B9A2C988BE288B99E
:102170002B982B9A2C9A18B82B982B9A18B82B9826
:102180002B9A8091600290916102019798B9019613
:102190002B982B9A815088B92B982B9A0895EF92FF
:1021A000FF920F931F93DF93CF93CDB7DEB728979E
:1021B0000FB6F894DEBF0FBECDBFF22F2983E32FF9
:1021C0003A834B835C83362F6D83272F7E838F83E7
:1021D00098877801AB81BC81062F172F6F81788596
:1021E0002C988AE288B92B982B9A2C9AE8B92B98CC
:1021F0002B9AF8B92B982B9AB8B92B982B9AA8B987
:102200002B982B9A2C988BE288B92B982B9A2C9A86
:1022100028B92B982B9A38B92B982B9A78B92B98E8
:102220002B9A68B92B982B9A2C988CE288B92B980A
:102230002B9A2C9A2F2F3E2FC901AC010DC0F8B854
:102240002B982B9AE8B82B982B9A2F5F3F4F621749
:102250007307A8F74F5F5F4FA417B50710F09801F9
:10226000F6CF28960FB6F894DEBF0FBECDBFCF9144
:10227000DF911F910F91FF90EF900895EF92FF92E1
:102280000F931F93DF93CF93CDB7DEB728970FB689
:10229000F894DEBF0FBECDBFF22F2983E32F3A8320
:1022A0004B835C83362F6D83272F7E838F839887A4
:1022B000D8010B811C81E62EF72E6F8178852C9832
:1022C0008AE288B92B982B9A2C9AE8B92B982B9AEA
:1022D000F8B92B982B9A18B92B982B9A08B92B98E8
:1022E0002B9A2C988BE288B92B982B9A2C9A28B988
:1022F0002B982B9A38B92B982B9A78B92B982B9A24
:1023000068B92B982B9A2C988CE288B92B982B9A29
:102310002C9A2F2F3E2FC901AC0114C011968C911D
:10232000119788B92B982B9A12968C91129788B98D
:1023300014962B982B9A2F5F3F4F6217730770F7F5
:102340004F5F5F4F0417150710F09701F6CF2896DF
:102350000FB6F894DEBF0FBECDBFCF91DF911F91B6
:102360000F91FF90EF9008950F931F93DF93CF93FA
:10237000CDB7DEB728970FB6F894DEBF0FBECDBF3E
:102380001092650210926402109267021092660227
:1023900020915E0230915F022150304080916002B6
:1023A0009091610201971A821982422F3C832B83FC
:1023B0001E821D8298878F8300916A0210916B02A2
:1023C00029813A815C816D817E8198850E94CF1040
:1023D00028960FB6F894DEBF0FBECDBFCF91DF9128
:1023E0001F910F9108952C982AE228B92B982B9AC7
:1023F0002C9A98B92B982B9A88B92B982B9A98B924
:102400002B982B9A88B92B982B9A2C988CE288B908
:102410002B982B9A2C9AF0916A02E0916B02CB01D7
:102420000DC0E8B92B982B9AF8B92B982B9AE8B9DC
:102430002B982B9AF8B92B982B9A01964817590785
:1024400080F708956F927F928F929F92AF92BF9282
:10245000CF92DF92EF92FF920F931F93CF93DF9370
:10246000282F409164025091650269E0862E912CDC
:10247000840E951E009166021091670280528F357E
:1024800008F0AAC037E0E32EF12CE00EF11E85E043
:102490002802F0011124E452F0402C988BE288B914
:1024A0002B982B9A2C9A18B92B982B9A08B92B9801
:1024B0002B9A015F1F4F18B90F5010402B982B9A81
:1024C0008E2D885F88B92B982B9AA0906802B090C7
:1024D0006902C0906A02D0906B02EA0160E070E08D
:1024E0009AE2692E8CE2782E4BC02C9868B82B9813
:1024F0002B9A2C9AD8B92B982B9AC8B92B982B9A2F
:10250000D8B92B982B9AC8B92B982B9A2C9878B8B5
:102510002B982B9A2C9A60FD02C0DF0102C0DF01CC
:1025200011968491980151E024C0452F482311F45D
:102530009D2D01C09B2D98B92B982B9A442311F403
:102540009C2D01C09A2D98B92B982B9A442311F4F5
:102550009D2D01C09B2D98B92B982B9A442311F4E3
:102560009C2D01C09A2D98B92B982B9A2F5F3F4F25
:10257000550FE216F306C8F621966F5F7F4FFD01F7
:102580008C169D0608F0B1CFCE01B801A7010E94BC
:10259000F311CE010196B801A7010E94F3118091B9
:1025A0006402909165020C96909365028093640298
:1025B00020915E0230915F028217930768F01092BB
:1025C00065021092640280916602909167024096C3
:1025D0009093670280936602DF91CF911F910F91D4
:1025E000FF90EF90DF90CF90BF90AF909F908F9033
:1025F0007F906F9008951F93CF93DF93EC0110E0CD
:1026000003C00E9422121F5FFE01E10FF11D8081B5
:102610008823B9F7DF91CF911F910895813F9105EC
:1026200060F421E06134720740F490936502809376
:1026300064027093670260936602089590936B0240
:1026400080936A02089590936902809368020895C6
:1026500008969093C5038093C403665F7F4F709381
:10266000C3036093C20308950F931F93CF93DF9327
:10267000EC018A016230710509F446C063307105CE
:1026800040F46115710591F06130710509F08EC05B
:102690002EC06430710509F451C06430710508F42E
:1026A00040C06530710509F081C055C04091C40338
:1026B0005091C5032091C2033091C303413F51059E
:1026C00008F074C0F4E0880F991FFA95E1F7820FC3
:1026D000931F21E08134920708F068C0509365028F
:1026E0004093640290936702809366025FC060919A
:1026F0005E0270915F0280E090E00E94321B20E059
:1027000030E040E85EE333C060915E0270915F02AA
:1027100080E090E00E94321B20E030E040E05FE388
:1027200026C060915E0270915F0280E090E00E949E
:10273000321B20E030E040E45FE319C060915E02AC
:1027400070915F0280E090E00E94321B26E636E640
:1027500046E65FE30CC060915E0270915F0280E02C
:1027600090E00E94321B2AE939E949E55FE30E94C3
:10277000EA170E9438154091C2035091C303613F8C
:102780007105A0F49E01E4E0220F331FEA95E1F702
:10279000240F351F41E02134340740F47093650263
:1027A000609364023093670220936602C8010E941E
:1027B000FB12DF91CF911F910F91089585B780682B
:1027C00085BF85B7806885BF8FE784B98FEF87B9EC
:1027D0000E94EB1308952A9888EE93E02CE231E0F2
:1027E000F9013197F1F70197D9F72A9A88EE93E02A
:1027F0002CE231E0F9013197F1F70197D9F72C9AE2
:102800002B9A2D9A289829982E9A2C9888E288B984
:102810002B982B9A2C9A2C9881E188B92B982B9A7B
:102820002C9A88E592E02CE231E0F9013197F1F73A
:102830000197D9F72C988BEC88B92B982B9A2C9A66
:1028400081E088B92B982B9A2C9880EC88B92B982A
:102850002B9A2C9A86E288B92B982B9A88E088B913
:102860002B982B9A2C9881EC88B92B982B9A2C9A20
:1028700080E188B92B982B9A2C9885EC88B92B98F5
:102880002B9A2C9A85E388B92B982B9A8EE388B9DA
:102890002B982B9A2C9886E388B92B982B9A2C9AF4
:1028A00088E488B92B982B9A2C9880EB88B92B98C0
:1028B0002B9A2C9A8AE488B92B982B9A2C9881EB26
:1028C00088B92B982B9A2C9A18B82B982B9A8BE1B5
:1028D00088B92B982B9A2C9886EB88B92B982B9A31
:1028E0002C9AEAE9F2E0819188B92B982B9A42E080
:1028F000EE39F407C1F72C9887EC88B92B982B9AFE
:102900002C9A85EB88B92B982B9A2C9886EF88B94E
:102910002B982B9A2C9AE6E9F2E0819188B92B98B2
:102920002B9A82E0E939F807C1F72C9882EF88B931
:102930002B982B9A2C9A18B82B982B9A2C9886E2C5
:1029400088B92B982B9A2C9A81E088B92B982B9ACE
:102950002C988AE388B92B982B9A2C9A85E588B90C
:102960002B982B9A2C9880EE88B92B982B9A2C9A1E
:10297000E6E8F2E0819188B92B982B9A42E0E5399C
:10298000F407C1F72C9881EE88B92B982B9A2C9AD2
:10299000E6E7F2E0819188B92B982B9A82E0E5383E
:1029A000F807C1F72C988AE288B92B982B9A2C9AB1
:1029B000E1E7F2E0819188B92B982B9A42E0E53764
:1029C000F407C1F72C988BE288B92B982B9A2C9A94
:1029D000ECE6F2E0819188B92B982B9A82E0E037FF
:1029E000F807C1F72C9884E388B92B982B9A2C9A76
:1029F0002C9884EB88B92B982B9A2C9A18B82B9882
:102A00002B9A2C9887EB88B92B982B9A2C9A87E0D5
:102A100088B92B982B9A2C988CE288B92B982B9AF2
:102A20002C9A20E030E010C018B82B982B9A18B8D8
:102A30002B982B9A019641E080349407A9F72F5FD9
:102A40003F4F203F310519F080E090E0EDCF2C980A
:102A500089E288B92B982B9A2C9A84EF91E02CE28A
:102A600031E0F9013197F1F70197D9F7299A0895E3
:102A7000EF92FF920F931F937B018C0120E030E0D7
:102A800040E05FE40E94201A88238CF0C801B7015F
:102A900020E030E040E05FE40E948C170E94DE1AE4
:102AA0009B01AC01205030404040504806C0C80156
:102AB000B7010E94DE1A9B01AC01B901CA011F9146
:102AC0000F91FF90EF900895A2E0B0E0EAE6F5E103
:102AD0000C943E1E122FB32EA42E952E862E372E2A
:102AE000282E9A83C22ED32EE42EF52EA70196010E
:102AF00060E070E080E090E02117A1F43B1591F4D4
:102B00004A1581F4591571F4681561F4731551F47F
:102B1000821541F4AA819A1729F4C701B6010E94CF
:102B2000321BAAC0212F3B2D4A2D592D682D732D04
:102B3000822D9A8100E20E94AB1BC901DA0180302C
:102B4000E0E09E07E1E0AE07E0E0BE0780F48F3FE3
:102B50009105A105B10531F028F028E030E040E012
:102B600050E016C020E030E040E050E011C080307E
:102B7000F0E09F07F0E0AF07F1E0BF0728F028E1A1
:102B800030E040E050E004C020E130E040E050E0C0
:102B9000022E04C0B695A795979587950A94D2F70B
:102BA000FC01E955FD4F808129013A01480E511C75
:102BB000611C711C4982212F3B2D4A2D592D682DF6
:102BC000732D822D9A81042D0E94AB1BC901DA015D
:102BD0004C015D0180E290E08419950904C0CC0CA1
:102BE000DD1CEE1CFF1C8A95D2F7C114D104E10450
:102BF000F10441F081E090E0A0E0B0E0882A992A59
:102C0000AA2ABB2A90E2491651046104710459F4BE
:102C10000F2EF0E0EF2EF0E0FF2EF0E80F2FFFE494
:102C20001F2FF02D21C0AFE14A1651046104710439
:102C300059F40F2EF0E0EF2EF0E0FF2EF0E00F2F12
:102C4000FFE41F2FF02D10C061E070E080E090E005
:102C5000098004C0660F771F881F991F0A94D2F756
:102C60000E94801A7B018C01C501B4010E94321BB5
:102C7000A80197010E94EA172296E2E10C945A1EDD
:102C8000A0E0B0E0E6E4F6E10C943E1EDC012B018E
:102C9000FA019C91923008F439C1EB0188818230AD
:102CA00008F433C1943069F4843009F02FC11196CF
:102CB0009C9111978981981709F428C1AFE9B2E076
:102CC00025C1843009F421C18230A9F4923009F081
:102CD0001DC19A01AD0188E0EA010990AE01E90148
:102CE00009929E018150C1F7E201898111969C9160
:102CF0008923818308C1923009F407C112962D906F
:102D00003C901397EB018A819B811496AD90BD9006
:102D1000CD90DC901797EC80FD800E811F81910192
:102D2000281B390BB90137FF04C066277727621BC0
:102D3000730B603271050CF061C0121613066CF54E
:102D400037014801062E04C09694879477946794BF
:102D50000A94D2F721E030E040E050E004C0220FB6
:102D6000331F441F551F6A95D2F721503040404011
:102D700050402E213F21402351232115310541058B
:102D8000510521F021E030E040E050E079018A0176
:102D9000E628F728082919293CC0232BD1F1260E53
:102DA000371E35014601062E04C096948794779409
:102DB00067940A94D2F721E030E040E050E004C08C
:102DC000220F331F441F551F6A95D2F72150304000
:102DD000404050402A213B214C215D2121153105E5
:102DE0004105510521F021E030E040E050E059017B
:102DF0006A01A628B728C828D9280BC082159305D0
:102E00002CF01C01AA24BB24650103C0EE24FF247E
:102E1000870111969C91D20111968C91981709F413
:102E200045C0992339F0A80197012A193B094C099B
:102E30005D0906C0A60195012E193F09400B510BF3
:102E400057FD08C011823382228224833583468352
:102E500057831DC081E0818333822282882799278E
:102E6000DC01821B930BA40BB50B84839583A68393
:102E7000B7830DC0220F331F441F551F2483358392
:102E80004683578382819381019793838283248130
:102E9000358146815781DA01C9010197A109B1093C
:102EA0008F5F9F4FAF4FBF4328F30BC09183338297
:102EB0002282EA0CFB1C0C1D1D1DE482F582068398
:102EC000178383E08083248135814681578157FFB2
:102ED0001AC0C901AA2797FDA095BA2F81709070DA
:102EE000A070B0705695479537952795822B932BF8
:102EF000A42BB52B84839583A683B783828193818A
:102F0000019693838283DF0101C0D201CD01CDB749
:102F1000DEB7E2E10C945A1EA0E2B0E0E2E9F7E18C
:102F20000C944A1E69837A838B839C832D833E8312
:102F30004F835887E9E0EE2EF12CEC0EFD1ECE01FA
:102F40000196B7010E944E1D8E010F5E1F4FCE01EC
:102F50000596B8010E944E1D8A8991E089278A8BC7
:102F6000C701B801AE01475E5F4F0E9440160E9444
:102F7000791CA096E6E00C94661EA0E2B0E0E3ECBB
:102F8000F7E10C944A1E69837A838B839C832D839B
:102F90003E834F835887F9E0EF2EF12CEC0EFD1E97
:102FA000CE010196B7010E944E1D8E010F5E1F4F8C
:102FB000CE010596B8010E944E1DC701B801AE01B1
:102FC000475E5F4F0E9440160E94791CA096E6E083
:102FD0000C94661EA0E2B0E0E0EFF7E10C943E1E18
:102FE00069837A838B839C832D833E834F835887A9
:102FF000CE010196BE01675F7F4F0E944E1DCE013C
:103000000596BE016F5E7F4F0E944E1D99859230DE
:1030100088F089898230C8F0943019F4823051F4F4
:1030200004C0843029F4923081F48FE992E0C6C064
:10303000923049F420E09A858A89981321E02A8702
:10304000CE010996BBC0823049F420E09A858A8976
:10305000981321E02A8BCE014196B0C02D843E8486
:103060004F8458886D887E888F88988CEE24FF2442
:103070008701AA24BB24650140E050E060E070E0D5
:10308000E0E0F0E0C10181709070892BE9F0E60C7E
:10309000F71C081D191D9A01AB012A0D3B1D4C1D83
:1030A0005D1D80E090E0A0E0B0E0E614F7040805C4
:1030B000190520F481E090E0A0E0B0E0BA01A90198
:1030C000480F591F6A1F7B1FAA0CBB1CCC1CDD1CA0
:1030D00097FE08C081E090E0A0E0B0E0A82AB92AFD
:1030E000CA2ADB2A3196E032F10549F0660C771CDA
:1030F000881C991C5694479437942794C3CFFA851B
:10310000EA892B893C898B859C85280F391F2E5F86
:103110003F4F17C0CA0181709070892B61F01695DE
:103120000795F794E79480E090E0A0E0B0E8E82A03
:10313000F92A0A2B1B2B76956795579547952F5F94
:103140003F4F77FDE7CF0CC0440F551F661F771F19
:1031500017FD4160EE0CFF1C001F111F2150304075
:10316000403090E0590790E0690790E4790760F3F8
:103170002B8F3C8FDB01CA018F779070A070B070ED
:1031800080349105A105B10561F447FD0AC0E11441
:10319000F1040105110529F0405C5F4F6F4F7F4F2F
:1031A00040781A8EFE1711F081E08A8F4D8F5E8F66
:1031B0006F8F78A383E0898FCE0149960E94791C96
:1031C000A096E2E10C945A1EA8E1B0E0EAEEF8E124
:1031D0000C94461E69837A838B839C832D833E8364
:1031E0004F835887B9E0EB2EF12CEC0EFD1ECE017B
:1031F0000196B7010E944E1D8E010F5E1F4FCE013A
:103200000596B8010E944E1D2985223008F47EC023
:103210003989323010F4B8017CC08A859A898927AF
:103220008A87243011F0223031F4231709F06EC060
:103230006FE972E06EC0343039F41D861E861F8639
:10324000188A1C861B8604C0323021F484E08987EA
:10325000B7015FC02B853C858B899C89281B390B66
:103260003C872B87ED84FE840F851889AD88BE8846
:10327000CF88D88CEA14FB040C051D0540F4EE0C35
:10328000FF1C001F111F215030403C872B8720E07E
:1032900030E040E050E080E090E0A0E0B0E460E0AA
:1032A00070E0EA14FB040C051D0540F0282B392BB7
:1032B0004A2B5B2BEA18FB080C091D09B695A7954C
:1032C00097958795EE0CFF1C001F111F6F5F7F4FB6
:1032D0006F31710531F7DA01C9018F779070A070F5
:1032E000B07080349105A105B10561F427FD0AC0D5
:1032F000E114F1040105110529F0205C3F4F4F4F07
:103300005F4F20782D873E874F87588BBE01675FC0
:103310007F4FCB010E94791C6896EAE00C94621EF4
:10332000A8E1B0E0E6E9F9E10C944A1E69837A83EA
:103330008B839C832D833E834F83588789E0E82EBF
:10334000F12CEC0EFD1ECE010196B7010E944E1D20
:103350008E010F5E1F4FCE010596B8010E944E1DD3
:103360008985823040F08989823028F0C701B80110
:103370000E94C61D01C081E06896E6E00C94661EBE
:10338000A8E1B0E0E6ECF9E10C944A1E69837A8387
:103390008B839C832D833E834F83588789E0E82E5F
:1033A000F12CEC0EFD1ECE010196B7010E944E1DC0
:1033B0008E010F5E1F4FCE010596B8010E944E1D73
:1033C0008985823040F08989823028F0C701B801B0
:1033D0000E94C61D01C081E06896E6E00C94661E5E
:1033E000A8E1B0E0E6EFF9E10C944A1E69837A8324
:1033F0008B839C832D833E834F83588789E0E82EFF
:10340000F12CEC0EFD1ECE010196B7010E944E1D5F
:103410008E010F5E1F4FCE010596B8010E944E1D12
:103420008985823040F08989823028F0C701B8014F
:103430000E94C61D01C08FEF6896E6E00C94661EE0
:10344000A8E1B0E0E6E2FAE10C944A1E69837A83CF
:103450008B839C832D833E834F83588789E0E82E9E
:10346000F12CEC0EFD1ECE010196B7010E944E1DFF
:103470008E010F5E1F4FCE010596B8010E944E1DB2
:103480008985823040F08989823028F0C701B801EF
:103490000E94C61D01C08FEF6896E6E00C94661E80
:1034A000A8E1B0E0E6E5FAE10C944A1E69837A836C
:1034B0008B839C832D833E834F83588789E0E82E3E
:1034C000F12CEC0EFD1ECE010196B7010E944E1D9F
:1034D0008E010F5E1F4FCE010596B8010E944E1D52
:1034E0008985823040F08989823028F0C701B8018F
:1034F0000E94C61D01C081E06896E6E00C94661E3D
:10350000A8E0B0E0E6E8FAE10C94471E9B01AC01AC
:1035100083E08983DA01C9018827B7FD839599275C
:10352000AA27BB27B82E211531054105510519F4ED
:1035300082E089833AC08823A9F0203080E03807F0
:1035400080E0480780E8580729F460E070E080E0F8
:103550009FEC30C0EE24FF248701E21AF30A040B2B
:10356000150B02C079018A018EE1C82ED12CDC82B4
:10357000CB82ED82FE820F831887C801B7010E94BB
:103580002A1C01971816190684F4082E04C0EE0CA4
:10359000FF1C001F111F0A94D2F7ED82FE820F83D9
:1035A0001887C81AD90ADC82CB82BA82CE0101966A
:1035B0000E94791C2896E9E00C94631EACE0B0E010
:1035C000E4EEFAE10C944E1E69837A838B839C832C
:1035D000CE010196BE016B5F7F4F0E944E1D8D8113
:1035E000823061F1823050F1843021F48E81882361
:1035F00051F12EC02F81388537FD20C06E812F31CB
:1036000031051CF06623F9F023C08EE190E0821BA7
:10361000930B29853A854B855C8504C05695479563
:10362000379527958A95D2F76623B1F05095409546
:10363000309521953F4F4F4F5F4F0EC020E030E057
:1036400040E050E009C02FEF3FEF4FEF5FE704C0CD
:1036500020E030E040E050E8B901CA012C96E2E0F9
:103660000C946A1EA8E0B0E0E8E3FBE10C94461E6F
:103670007B018C01611571058105910519F482E0CA
:10368000898360C083E089838EE1C82ED12CDC82DF
:10369000CB82ED82FE820F831887C801B7010E949A
:1036A0002A1CFC013197F7FF3BC0222733272E1B32
:1036B0003F0B57016801022E04C0D694C794B794FB
:1036C000A7940A94D2F740E050E060E070E081E017
:1036D00090E0A0E0B0E004C0880F991FAA1FBB1FB4
:1036E0002A95D2F70197A109B1098E219F21A02324
:1036F000B1230097A105B10521F041E050E060E061
:1037000070E04A295B296C297D294D835E836F8394
:1037100078878EE190E08E1B9F0B9C838B8312C079
:10372000309781F00E2E04C0EE0CFF1C001F111FFD
:103730000A94D2F7ED82FE820F831887CE1ADF0A31
:10374000DC82CB821A82CE0101960E94791C2896D7
:10375000EAE00C94621EEF92FF920F93DF93CF93F7
:10376000CDB7DEB760970FB6F894DEBF0FBECDBF02
:10377000A82F002309F461C07E010894E11CF11C0C
:1037800088E0F70111928A95E9F729833A834B8300
:103790005C836D837E83AF83988780E2801BE82FF4
:1037A000FF27E7FDF0954D815E816F8178851816C2
:1037B00084F01D861E861F86188A882799278E1BEF
:1037C0009F0B04C076956795579547958A95D2F7D4
:1037D00028C0202F332727FD3095DB01CA01022E98
:1037E00004C0B695A795979587950A94D2F78D87CB
:1037F0009E87AF87B88B04C0440F551F661F771F85
:10380000EA95D2F789819A81AB81BC8104C0B695D3
:10381000A795979587952A95D2F7482B592B6A2B10
:103820007B2B49875A876B877C8729853A854B850F
:103830005C856D857E85AF8598898A2F60960FB6E9
:10384000F894DEBF0FBECDBFCF91DF910F91FF90F7
:10385000EF900895EF92FF920F931F937B018C01DD
:1038600080E0E81680E0F80681E0080780E01807AD
:1038700088F48FEFE816F1040105110531F028F006
:1038800088E090E0A0E0B0E017C080E090E0A0E029
:10389000B0E012C080E0E81680E0F80680E008079B
:1038A00081E0180728F088E190E0A0E0B0E004C0D3
:1038B00080E190E0A0E0B0E020E230E040E050E0C5
:1038C000281B390B4A0B5B0B04C016950795F79420
:1038D000E7948A95D2F7F701E955FD4F8081281BBF
:1038E000310941095109C9011F910F91FF90EF90D2
:1038F0000895DF92EF92FF920F931F93FC01E480F3
:10390000F58006811781D1808081823048F480E083
:1039100090E0A0E1B0E0E82AF92A0A2B1B2BA5C011
:10392000843009F49FC0823021F4EE24FF24870103
:1039300005C0E114F1040105110519F4E0E0F0E01F
:1039400096C0628173819FEF623879070CF05BC08B
:1039500022E83FEF261B370B2A3131052CF020E0FF
:1039600030E040E050E02AC0B801A701022E04C0B8
:1039700076956795579547950A94D2F781E090E040
:10398000A0E0B0E004C0880F991FAA1FBB1F2A95B2
:10399000D2F70197A109B1098E219F21A023B1235C
:1039A0000097A105B10521F081E090E0A0E0B0E032
:1039B0009A01AB01282B392B4A2B5B2BDA01C90169
:1039C0008F779070A070B07080349105A105B1051B
:1039D00039F427FF09C0205C3F4F4F4F5F4F04C0B1
:1039E000215C3F4F4F4F5F4FE0E0F0E02030A0E020
:1039F0003A07A0E04A07A0E45A0710F0E1E0F0E03F
:103A000079018A0127C06038710564F5FB01E1582E
:103A1000FF4FD801C7018F779070A070B0708034CD
:103A20009105A105B10539F4E7FE0DC080E490E0F1
:103A3000A0E0B0E004C08FE390E0A0E0B0E0E80ECA
:103A4000F91E0A1F1B1F17FF05C016950795F7944F
:103A5000E794319687E016950795F794E7948A9551
:103A6000D1F705C0EE24FF248701EFEFF0E06E2FC1
:103A7000679566276795902F9F77D794DD24D79415
:103A80008E2F8695492F462B582F5D29B701CA01E5
:103A90001F910F91FF90EF90DF900895FC01DB01E3
:103AA000408151812281622F6F7770E0221F22278F
:103AB000221F9381892F880F822B282F30E0991F96
:103AC0009927991F11969C93119721153105A9F5F6
:103AD000411551056105710511F482E037C082E896
:103AE0009FEF13969C938E9312979A01AB0167E018
:103AF000220F331F441F551F6A95D1F783E08C9323
:103B00000DC0220F331F441F551F12968D919C919B
:103B10001397019713969C938E931297203080E011
:103B2000380780E0480780E4580758F314962D932F
:103B30003D934D935C93179708952F3F310579F48A
:103B4000411551056105710519F484E08C930895C0
:103B500064FF03C081E08C9312C01C9210C02F57E9
:103B6000304013963C932E93129783E08C9387E01A
:103B7000440F551F661F771F8A95D1F770641496FE
:103B80004D935D936D937C93179708951F93DC017C
:103B9000FB019C91923008F447C08081823008F488
:103BA00043C0943051F411961C91843099F5818171
:103BB000682F70E0611B71093FC0843021F09230A2
:103BC00031F48230B9F18181882389F12DC01196B9
:103BD0001C9111978230F1F081811817D9F4129657
:103BE0002D913C911397828193818217930794F0D2
:103BF00028173907BCF014968D919D910D90BC91BA
:103C0000A02D2481358146815781281739074A071D
:103C10005B0718F4112341F00AC082179307A40729
:103C2000B50740F4112319F061E070E005C06FEFB3
:103C30007FEF02C060E070E0CB011F910895629FAA
:103C4000D001739FF001829FE00DF11D649FE00D94
:103C5000F11D929FF00D839FF00D749FF00D659FF5
:103C6000F00D9927729FB00DE11DF91F639FB00DF4
:103C7000E11DF91FBD01CF01112408952F923F923C
:103C80004F925F926F927F928F929F92AF92BF926C
:103C9000CF92DF92EF92FF920F931F93CF93DF9318
:103CA000CDB7DEB7CA1BDB0B0FB6F894DEBF0FBE75
:103CB000CDBF09942A88398848885F846E847D84C2
:103CC0008C849B84AA84B984C884DF80EE80FD80C4
:103CD0000C811B81AA81B981CE0FD11D0FB6F8943A
:103CE000DEBF0FBECDBFED010895EF92FF920F939F
:103CF0001F93F22FF02E47FD02C0E4E001C0E4E183
:103D0000242F332727FD309537FF03C030952195A9
:103D10003F4F4F2D512F0F2FEE2E0E9497208F2DAA
:103D2000912F1F910F91FF90EF900895AEE0B0E0BA
:103D3000ECE9FEE10C944C1E0D891E8986E08C8313
:103D40001A8309838FEF9FE79E838D839E01275EF1
:103D50003F4FCE0101966F89788DA9010E94BA1E4E
:103D60002F813885020F131FF80110822E96E4E090
:103D70000C94681EABE0B0E0E0ECFEE10C943E1E5B
:103D80003C012B015A01FC0117821682838181FDBF
:103D900003C06FEF7FEFC6C19AE0892E1E01089421
:103DA000211C311CF3012381F20123FD859123FFA6
:103DB00081912F01882309F4B2C1853239F423FDA2
:103DC000859123FF81912F01853229F490E0B30181
:103DD0000E94E722E7CF982FFF24EE249924FFE1E9
:103DE000FF15D0F09B3269F09C3228F4903259F0E4
:103DF000933291F40EC09D3249F0903369F441E062
:103E000024C052E0F52A84E0F82A28C098E0F92A74
:103E100025C0E0E1FE2A22C0F7FC29C0892F80538B
:103E20008A3070F4F6FE05C0989C902C1124980EF0
:103E300015C0E89CE02C1124E80EF0E2FF2A0EC029
:103E40009E3229F4F6FC6BC140E4F42A07C09C368C
:103E500019F450E8F52A02C0983649F4F20123FD1E
:103E6000959123FF91912F01992309F0B8CF892FC4
:103E70008554833018F08052833038F444E050E0A9
:103E8000A40EB51E5FE359830FC0933631F093370C
:103E900079F0933509F056C020C0F50180818983FF
:103EA00042E050E0A40EB51E610101E010E012C036
:103EB000F501C080D180F6FC03C06FEF7FEF02C038
:103EC000692D70E042E050E0A40EB51EC6010E94CC
:103ED000DC228C015FE7F52214C0F501C080D1809F
:103EE000F6FC03C06FEF7FEF02C0692D70E042E087
:103EF00050E0A40EB51EC6010E94D1228C0150E8EC
:103F0000F52AF3FE07C01AC080E290E0B3010E94D8
:103F1000E722EA948E2D90E008171907A8F30EC047
:103F2000F601F7FC8591F7FE81916F0190E0B301F6
:103F30000E94E722E110EA9401501040011511059A
:103F400079F7EAC0943611F0993669F5F7FE08C0A2
:103F5000F501208131814281538184E090E00AC0E3
:103F6000F501808191819C01442737FD4095542FB4
:103F700082E090E0A80EB91E9FE6F92257FF09C023
:103F800050954095309521953F4F4F4F5F4FE0E85A
:103F9000FE2ACA01B901A1012AE030E00E941323E0
:103FA000D82ED21840C0953729F41F2D1F7E2AE045
:103FB00030E01DC01F2D197F9F3661F0903720F42F
:103FC000983509F0ACC00FC0903739F0983709F038
:103FD000A6C004C028E030E00AC0106114FD1460DF
:103FE00020E130E004C014FD166020E132E017FF4C
:103FF00008C0F501608171818281938144E050E0C5
:1040000008C0F50180819181BC0180E090E042E030
:1040100050E0A40EB51EA1010E941323D82ED21881
:104020008FE7F82EF122F6FE0BC05EEFF522D914D1
:1040300038F4F4FE07C0F2FC05C08FEEF82202C08F
:104040001D2D01C0192DF4FE0DC0FE01ED0DF11D59
:104050008081803319F499EEF92208C01F5FF2FEC7
:1040600005C003C08F2D867809F01F5F0F2DF3FC6C
:1040700014C0F0FE0FC01E1510F09D2C0BC09D2C1F
:104080009E0C911A1E2D06C080E290E0B3010E94A2
:10409000E7221F5F1E15C0F304C01E1510F4E11ABD
:1040A00001C0EE2404FF0FC080E390E0B3010E9442
:1040B000E72202FF1DC001FD03C088E790E00EC0AB
:1040C00088E590E00BC0802F867891F001FF02C058
:1040D0008BE201C080E2F7FC8DE290E0B3010E9428
:1040E000E72206C080E390E0B3010E94E7229A94A1
:1040F000D914C0F3DA94F101ED0DF11D808190E047
:10410000B3010E94E722DD20A9F706C080E290E01B
:10411000B3010E94E722EA94EE20C1F743CEF301F7
:1041200066817781CB012B96E2E10C945A1EA9E0BF
:10413000B0E0EDE9F0E20C94421E6A01122FA02ECD
:10414000BE2C2BE3201718F42CE3922E02C0902EE5
:104150009394AE014F5F5F4F27E0092D0E94F92134
:10416000BC018981E82EFF24C701897090700197F6
:1041700011F4ADE209C0B1FE02C0ABE205C0B0FC73
:1041800002C0A0E001C0A0E2E3FE3BC0AA2311F4FC
:1041900023E001C024E0211710F020E002C0121B30
:1041A000212FEB2CB4FE02C0322F0AC0F601322FB1
:1041B00080E202C0819331503323E1F7C20ED11C5B
:1041C000AA2319F0F601A1936F01F6013196E2FEE0
:1041D00005C09EE4D6019C9381E404C09EE6D6010E
:1041E0009C9381E611968C9391833296DF01832F05
:1041F00090E202C09D9381508823E1F7E30FF11D07
:1042000040C0E2FE42C0AA2311F423E001C024E032
:10421000211710F020E002C0121B212FEB2CB4FE5E
:1042200002C0922F0AC0F601922F80E202C0819351
:1042300091509923E1F7C20ED11CAA2319F0F6017F
:10424000A1936F01F6013196E2FE08C089E4D60120
:104250008C938EE411968C9386E407C089E6D60190
:104260008C938EE611968C9386E681833296DF01DD
:10427000892F20E202C02D9381508823E1F7E90FB6
:10428000F11D10822EEF3FEFAFC0161617061CF07F
:1042900041E050E003C0AB014F5F5F4FAA2019F42B
:1042A00080E090E003C08A2D90E0019620E030E0AD
:1042B000AA2311F021E030E0240F351F280F391F09
:1042C000812F90E02817390714F020E002C0121B5C
:1042D000212F4B2D50E0CA0180719070B4FC0DC0AD
:1042E000B3FC0BC0F601322F40E202C041933150C3
:1042F0003323E1F7C20ED11C01C0322FAA2319F0DB
:10430000F601A1936F01892B11F0132F0AC0F6015A
:10431000132F80E302C0819311501123E1F7C30EE4
:10432000D11C092D060FBA8090E1892E912C8E2088
:104330009F20E4FE04C0F1E3BF1609F401501016FB
:1043400014F001E003C0093008F008E09B0177FF9A
:1043500002C020E030E0CB010196821B930BFE01EE
:104360003196E80FF91F8EE2F82E3B01601A7108B2
:104370008A2D90E044275527481B590B8FEF2F3F7C
:10438000380719F4D601FD926D01621773072CF0FE
:104390006216730614F4808101C080E3215030401E
:1043A00031962417350724F0D6018D936D01E6CFA1
:1043B0002617370749F4B5E3BB1528F0BB1621F4DF
:1043C0008114910409F481E3F6018193D601812FD0
:1043D00090E202C09C93815011968823D9F7E10F97
:1043E000F11D108220E030E0C9012996EEE00C9426
:1043F0005E1E283008F027E03327DA01990F311DBF
:1044000087FD916000966105710539F432602E5F79
:104410003D9330E32A95E1F708959F3F30F08038CF
:104420007105610509F03C5F3C5F3D93913008F0F8
:104430008068911DDF93CF931F930F93FF92EF92AC
:10444000192F987F9695E92F96959695E90FFF2756
:10445000EF54FD4F99273327EE24FF24A701E701EE
:1044600005900894079428F4360FE71EF81E491F9C
:10447000511D660F771F881F991F0694A1F705909D
:10448000079428F4E70EF81E491F561FC11D770F29
:10449000881F991F661F0694A1F70590079428F4BA
:1044A000F80E491F561FC71FD11D880F991F661F81
:1044B000771F0694A1F70590079420F4490F561F23
:1044C000C71FD81F990F661F771F881F0694A9F76B
:1044D00084911095177041F0D695C79557954795DB
:1044E000F794E7941A95C1F7E7E5F2E06894159020
:1044F000159135916591959105907FE27395E1183D
:10450000F10A430B560BC90BD009C0F7E10CF11EA1
:10451000431F561FC91FD01D7EF4703311F48A95B6
:10452000E6CFE894015030F0080F0AF40027021794
:1045300008F4202F2395022F7A3328F079E37D9316
:104540002A95E9F710C07D932A9589F606949795E8
:104550006795379517951794E118F10A430B560B99
:10456000C90BD00998F023957E9173957A3308F0A2
:1045700070E37C932013B8F77E9170617D9330F0E7
:10458000839571E37D9370E32A95E1F71124EF9011
:10459000FF900F911F91CF91DF91992787FD909503
:1045A0000895FC010590615070400110D8F7809586
:1045B00090958E0F9F1F0895FC01615070400190EF
:1045C0000110D8F7809590958E0F9F1F08950F9337
:1045D0001F93CF93DF938C01EB018B8181FF1BC075
:1045E00082FF0DC02E813F818C819D812817390764
:1045F00064F4E881F9810193F983E88306C0E885D2
:10460000F985802F0995892B31F48E819F81019640
:104610009F838E8302C00FEF1FEFC801DF91CF9100
:104620001F910F910895FA01AA27283051F12031E6
:1046300081F1E8946F936E7F6E5F7F4F8F4F9F4F36
:10464000AF4FB1E03ED0B4E03CD0670F781F891F78
:104650009A1FA11D680F791F8A1F911DA11D6A0F46
:10466000711D811D911DA11D20D009F468943F91F9
:104670002AE0269F11243019305D3193DEF6CF01F8
:104680000895462F4770405D4193B3E00FD0C9F7BE
:10469000F6CF462F4F70405D4A3318F0495D31FD2B
:1046A0004052419302D0A9F7EACFB4E0A69597957E
:1046B000879577956795BA95C9F700976105710554
:1046C00008959B01AC010A2E06945795479537959E
:1046D0002795BA95C9F7620F731F841F951FA01DF8
:0646E0000895F894FFCFDD
:1046E60020436F6E74726F6C6C6572200020496E89
:1046F600637265617365204256200020476F7420FF
:10470600326E6420425620200025357300596573A9
:10471600004E6F2000202020202049646C65002078
:10472600202043686172676500446973636861723B
:104736006765005465616D20480053746174757334
:104746000043313A0043323A0043333A0053313A98
:104756000053323A0053333A00425F537461747522
:10476600733A00425F4C6576656C3A00255F4D6191
:10477600696E733A00495F4D61696E733A00495F2D
:1047860057696E643A00495F536F6C61723A004232
:10479600425F563A0042425F433A0054696D653AB9
:1047A60000506F733A00495F52656E3A00495F5296
:1047B60065713A004D61696E732073746174757327
:1047C6003A006D696E7300250041005600730020A3
:1047D6004C6F6F70202020202020202000204C6F5E
:1047E6006F70202D20726571202000204C6F6F7035
:1047F600202D20626174203100204C6F6F70202DB7
:104806002077696E6400204C6F6F70202D20736FC7
:104816006C617200204C6F6F70202D20766F6C7467
:104826003100204C6F6F70202D20766F6C74320033
:1048360020416C6C6F636174696E67202000F00024
:104846004001000000000000FFFF00000000013FE3
:1048560000000000EF000025270510093A784D05F5
:10486600180D383A1F001F1A180A0F064587320A14
:10487600070207050000010000000A822700000069
:10488600000000000000000001020203030303040D
:1048960004040404040404050505050505050505C9
:1048A60005050505050505060606060606060606A9
:1048B6000606060606060606060606060606060692
:1048C6000606060606060607070707070707070779
:1048D6000707070707070707070707070707070762
:1048E6000707070707070707070707070707070752
:1048F6000707070707070707070707070707070742
:104906000707070707070708080808080808080828
:104916000808080808080808080808080808080811
:104926000808080808080808080808080808080801
:1049360008080808080808080808080808080808F1
:1049460008080808080808080808080808080808E1
:1049560008080808080808080808080808080808D1
:1049660008080808080808080808080808080808C1
:1049760008080808080808080808080808080808B1
:084986000808080808080800F1
:00000001FF
